S019000046696E616C5F50726F6A6563745F52544F532E73333714
S21400000000100020311B00002D1B00002D1B0000DF
S2140000102D1B00002D1B00002D1B00002D1B0000BB
S2140000202D1B00002D1B00002D1B00002D1B0000AB
S2140000302D1B00002D1B0000236E00002D1B000052
S2140000402D1B00002D1B00002D1B00002D1B00008B
S2140000502D1B00002D1B00002D1B00002D1B00007B
S2140000602D1B00002D1B00007D1100002D1B000025
S2140000702D1B00002D1B00002D1B00002D1B00005B
S2140000802D1B00002D1B0000C11100002D1B0000C1
S2140000902D1B00002D1B00002D1B00002D1B00003B
S2140000A02D1B00002D1B00002D1B00002D1B00002B
S2140000B02D1B00002D1B0000358000002D1B0000AE
S2140000C02D1B00002D1B00002D1B00002D1B00000B
S2140000D02D1B00002D1B00002D1B00002D1B0000FB
S2140000E02D1B00002D1B00002D1B00002D1B0000EB
S2140000F02D1B00002D1B00002D1B00002D1B0000DB
S2140001002D1B00002D1B00002D1B000010B5054CFC
S214000110237833B9044B13B10448AFF300800123AE
S214000120237010BDA81C00200000000050DF000057
S21400013008B5034B1BB103490348AFF3008008BD65
S21400014000000000AC1C002050DF0000A3F5803A41
S214000150704700BF174B002B08BF134B9D46FFF799
S214000160F5FF00218B460F461348144A121A09F071
S2140001707FFC0E4B002B00D098470D4B002B00D079
S21400018098470020002104000D000D48002802D0EA
S2140001900C48AFF3008009F031FC2000290001F084
S2140001A0E9FA09F017FC00BF000008000000000094
S2140001B0000000000010002070110020E8BE0020A3
S2140001C00000000000000000034A136923F0040347
S2140001D0136130BFF9E700BF00ED00E02DE9F04FF6
S2140001E0524E534C8FB006AB009300231A460A219A
S2140001F05048DFF88081504DDFF87CA14F4F05F066
S21400020011FB06AB009300231A4619463046D8F871
S21400021000B005F01DF8204607F040F82A6D484962
S2140002200AA809F089FD4749204607F02BFB4FF046
S214000230FF3905230122CDE901320AA90022022353
S214000240CDF80090204607F02AFBDAE9000109F015
S21400025017FA0146204601F0FBF83B4BD3E90001B4
S21400026009F00EFA394B0590D3E9000109F008FAB7
S2140002706B6A059A0146204601F020F93968204647
S21400028001F03AF9204601F099F9BBF1010F09D1C6
S214000290DAE9000109F0F4F90146204601F0AAF96E
S2140002A0C8F800902A4B1B7883B12A4BD3E900018B
S2140002B009F0E6F9284B0590D3E9000109F0E0F9CA
S2140002C0EB6C059A0146204601F010F9AA693B68D6
S2140002D09A421EDC00220123CDE901231F49022297
S2140002E000920622204607F0DAFA1D4806A906F014
S2140002F0F1F81C4806A906F0EDF81B4806A906F01A
S214000300E9F806AA0021304605F044F906F07CFF1D
S21400031069E7164B1A68002AF3D10123CDE90123B9
S2140003200222009212490622DCE700BF241D0020AC
S21400033048740020541D0020F0730020EC73002049
S21400034004C60000FCD30000D8740020181000205B
S214000350EC740020B0740020A074002007C60000D3
S214000360EC3E0020CC600020CC7200200010002064
S21400037010C60000E8740020081000202DE9F047A1
S2140003804FF000092E4FDFF8D48086B04D464C461D
S2140003904E4602ABCDE9006364224FF48473062117
S2140003A0384604F045FC02AB0093002382461A460A
S2140003B01946404604F04CFF1AF0020F03D002A87C
S2140003C006F070FA04461AF0040F03D002A806F0EE
S2140003D069FA0546AC421B4A26D21B4864212B1BF1
S2140003E000684B43B3FBF0F3B3FBF1F31168174817
S2140003F099440B44322BC8BF3223B9F1320F136035
S21400040028BF4FF0320902F02FF8114A00FB09F01E
S2140004100121B0FBF2F20F4803F094F90E4802AA4D
S214000420002105F0B7F8B4E70848166002F01CF89B
S21400043008480022012103F085F94FF00009EDE796
S214000440D41D0020C8740020A09900208006160045
S214000450A086010000600440146200204462002070
S2140004602DE9FF48DFF81091DFF810B14FF0000AD1
S214000470002302AF1A4664210097584605F0D2F9C9
S21400048000F024FF002000F00DFF364C364E2070A2
S214000490012000F007FF3070022000F003FF334D0C
S2140004A0DFF8DC802870032000F0FCFE00231A46EC
S2140004B088F8000019460097484604F0C9FE2278DE
S2140004C02B4BAAB132789AB92A788AB998F80020C4
S2140004D072B91A68012A05D001221A60254B6FF0FE
S2140004E0C7021A603A460021484605F053F8BFE7AF
S2140004F032787AB12A786AB998F8002052B9227808
S21400050042B91A68022AEDD002221A60194B6FF01F
S2140005106302E6E72A7872B1327862B998F800206A
S2140005204AB922783AB91A68032ADBD003221A603D
S214000530104B6422D5E798F800206AB132785AB991
S2140005402A784AB922783AB91A68042ACAD0042204
S2140005501A60084BC822C4E7C3F800A0054BC3F8CE
S21400056000A0BFE7F4740020F5740020F6740020A5
S214000570F07400208874002014620020A46200201A
S214000580F7740020000000002DE9F04F2DED048BDD
S214000590DFF884B391B00CAC00231A460A21BC489D
S2140005A0009405F03FF900231A461946B94800940E
S2140005B004F04EFE00231A461946B748009404F08D
S2140005C047FEB648214606F0B9F9B54A13680A93BD
S2140005D001330BD1DBF85030DBF840108B42A9BF5B
S2140005E05B1A0023CBF8503001231360AD4BAE4EA0
S2140005F0186808F041FD0446DBF830000D4608F0A8
S2140006003BFD02460B462046294608F0C9FED6E9C1
S2140006100045A64B0022C3E90001A54B204629460B
S21400062008F0DCFB0022002309F002F80022002874
S21400063000F0E0819F4BC6E900239F4B1A680292A8
S2140006405A6802F1004203929DED027B83ED007B27
S214000650DBF80400994E9A4F08F00EFD994B0022E5
S21400066008F09EFE984BC3E90001337841EC180B66
S214000670002B00F08B82D7E90045944BDFF89C8274
S21400068000222046294608F0F1FF002800F0CD8120
S2140006904FF0000333708E4B002200240025C8E97B
S2140006A00023C7E9004509F0F9FA8A4B1A688A4B15
S2140006B01B689B1A013390FBF3F101FB13001044F7
S2140006C008F0DAFC854BC3E90001854BC3E9004519
S2140006D07D4B794EDFF838A2D3E90045734B2046B0
S2140006E0D3E90023294608F031FDD6E9002308F0B7
S2140006F077FB02460B46C6E900232046294608F04B
S21400070025FD694E02460B46D6E9000108F068FB57
S214000710DAE90045734BC6E90001D3F800800022F1
S2140007204FF080432046294608F0A0FF002800F03E
S21400073091825F4B00222046294608F079FF002868
S21400074000F08882DFF8CC91674BD9E90067002279
S2140007503046394608F08AFF002800F07B82634B5B
S21400076000223046394608F063FF002800F0728207
S2140007705F4B1A78002A00F06D824FF000021A7064
S2140007805C4B5D490022CAE90023C9E90023002228
S2140007900023C1E900235949C1E90023584A1368D8
S2140007A001331360B8F1000FDBF8504040F3BF820E
S2140007B0DFF86CA19AF8003003F0FF020B92002BD2
S2140007C040F0B582DBF8540008F056FC064640467A
S2140007D00F4608F051FC4B4B002208F0E1FD0246A4
S2140007E00B463046394608F0B1FC474B06460F46E6
S2140007F0C3E90067204608F03FFC0446DBF84800E3
S2140008000D4608F039FC32463B468046894620466F
S214000810294608F0E3FA0022002308F027FF9FEDA0
S214000820188B0A90002800F0328232463B4630464B
S214000830394608F0D5FA42464B4608F0B1FD0AF0B4
S214000840BDFC324C1A4BC4E9000117490022D1E91D
S214000850000108F0C3FA2E4BC3E900012D4BDBF86C
S214000860440083ED008B08F007FC07A3D3E90023C0
S21400087008F06CFC0AF008FC02460B4652E000BF8B
S2140008800000000000805D40C37A4D56DF55AD3F46
S214000890BC610020241D002014620020F41C0020EF
S2140008A0E874002088740020081000207874002067
S2140008B00000204000002240807400202810002005
S2140008C0D874002000408F40F8740020000060407C
S2140008D000003440041000202C100020D0740020AB
S2140008E0E0740020C8740020000008400000324079
S2140008F0ED74002000406040A8740020C074002002
S214000900EC7300200000494090740020987400208A
S214000910A0740020B0740020F0730020181000208F
S214000920EC740020D4E9000108F010FCAE4BC3E9DB
S2140009300001DBF8440008F09FFBA5A3D3E90023E1
S21400094008F004FC0AF0F0FB01F100430793069060
S214000950D4E90023DDE9060108F0F8FBA34BC3E960
S2140009600001A34BC3E900010B9B8AF80030A14BA2
S214000970A14ED3E900459C4B2046D3E900232946E7
S21400098008F0E4FBD6E9002308F02AFA9B4BC6E9F8
S2140009900001974ED3E900232046294608F0D6FBEF
S2140009A0D6E9002308F01CFA02460B46C6E90023E7
S2140009B02046294608F0CAFB914E02460B46D6E969
S2140009C0000108F00DFADBF850304CF24F3293423B
S2140009D0C6E90001D8BF0A330CAA8A48D8BFCBF8AC
S2140009E05030002104F0D6FD87480CAA002104F000
S2140009F0D1FDD0E5854B2046294608F0F1F9844B19
S214000A00002208F033FE00283FF422AE72A3D3E99A
S214000A100023C6E900237F4B1A6804925A6802F145
S214000A20004205929DED047B10E698ED007B0022C7
S214000A3051EC170BB0EE479AF0EE679A002308F0D9
S214000A40F7FDDFF8FCA10022DAE90067002800F0D5
S214000A509180714BCAF80060C8E9002307F1004393
S214000A60CAF804306D4BD3E900896D4BD3E90067B3
S214000A700022664B4046494608F0B0F932463B46EF
S214000A8008F0D6FD002849D0604B00224046494673
S214000A9008F0A6F98046894602460B463046394697
S214000AA008F0C6FD002800F063815E4B0022204659
S214000AB0294608F0DBFD68B1554B00222046294642
S214000AC008F0B6FD30B1584B4FF000021A70574B85
S214000AD000221A60564BDBF83C0090FBF3F08030A7
S214000AE008F0CAFA02460B462046294608F0BEFD24
S214000AF0A0B1474B00222046294608F099FD68B170
S214000B000A9B5BB14B4B4C4A4C4DD3E90001002489
S214000B10C2E9004501F1004218605A60484B454C56
S214000B20D3E9002351EC180B08F010FB32463B4685
S214000B3008F056F93A4BC3E90001424B51EC180B4A
S214000B40D3E9002308F002FBD4E9002308F048F9B3
S214000B5002460B46C4E9002351EC180B08F0F6FADF
S214000B60354C02460B46D4E9000108F039F9C4E9D1
S214000B700001ADE5264B51EC190B08F077FD002877
S214000B803FF470AF16A3D3E9002363E7244B2E4946
S214000B90002000240025C3E90001C7E9004509F04C
S214000BA07DF82A4B1A682A4B1B689B1A013390FB68
S214000BB0F3F101FB1300104408F05EFA204BC3E982
S214000BC000011C4BC3E900450123337080E500BFDC
S214000BD0C37A4D56DF55AD3F0000000000C05D40B3
S214000BE00000000000C05F40A8740020B874002019
S214000BF0C0740020F8740020A0740020101000209C
S214000C00B0740020241D0020146200200000204044
S214000C1000006040807400200000F03F08100020B4
S214000C201810002000805F402810002000100020D0
S214000C3018FCFFFFE0740020D874002000405B40E2
S214000C40D074002020100020000034400410002043
S214000C502C100020002200232046294608F0E8FC3D
S214000C604B4E70B94B4B00222046294608F0FEFC3E
S214000C7038B94949474BD1E90001002208F0F6FC93
S214000C8018B14FF0000333708CE50123FBE7434BAC
S214000C902246C3E9004520462B46294608F0A0F820
S214000CA042464B4608F07CFB0AF088FA3C4C3D4B2B
S214000CB0C4E900013C490022D1E9000108F08EF8A1
S214000CC03A4BC3E90001344BDBF8440083ED008B5C
S214000CD008F0D2F92CA3D3E9002308F037FA0AF07B
S214000CE0D3F902460B46D4E9000108F02FFA304B40
S214000CF0C3E90001DBF8440008F0BEF922A3D3E9FB
S214000D00002308F023FA0AF00FFA01F100430993D2
S214000D100890D4E90023DDE9080108F017FA254B0E
S214000D20C3E90001244BC3E900010A9B1DE6002C21
S214000D3003DC0023CBF8503019E62046174C08F0A9
S214000D409BF9D4E9002308F049F808F099FC002242
S214000D500023C4E900230E4BCBF850001A78174B3B
S214000D6002F0FF0112B101221A7000E61970FEE5CA
S214000D7042464B463046394608F05AFC00283FF4B7
S214000D80CDAEA7E6AFF30080C37A4D56DF55AD3F34
S214000D90ED74002000006040B074002090740020C5
S214000DA0987400200000204008100020A074002046
S214000DB0A8740020B8740020C0740020EC740020D2
S214000DC01FB500216A46034804F020FE05B05DF812
S214000DD004FB00BFBC6100201FB500216A46034823
S214000DE004F014FE05B05DF804FB00BF541D00209F
S214000DF01FB500216A46034804F008FE05B05DF8FA
S214000E0004FB00BFA462002010B50C4B0C480D4933
S214000E1088B02022C3F8FC200B4B0193002204ACC0
S214000E200123029200930394022305F023FE214639
S214000E30034805F083FD08B010BD00BF00A00046C3
S214000E40C41C00201BC600004D0E0000024B2022D2
S214000E50C3F8FC20704700BF00A000441FB51E4822
S214000E6000F0C0FA684605F01DFD08F0E9FE6B4686
S214000E701A491B48002204F069FE6B4619491A48B5
S214000E80002204F063FE6B4618491948002204F05D
S214000E905DFE6A461749184804F012FB6A46174971
S214000EA0174804F00DFB6A461649174804F008FB7D
S214000EB06A461649164804F003FB6B461549164861
S214000EC0002204F043F8154915486B46002204F04A
S214000ED03DF805B05DF804FBF073002030C6000056
S214000EE0BC61002042C60000A462002053C6000079
S214000EF0541D002061C60000241D00207AC6000094
S214000F001462002089C600004462002097C60000D4
S214000F1074620020A4C60000AC1D0020B9C6000004
S214000F20D41D00202DE9F04FDFF8D890DFF8D8B0B8
S214000F302B4AD9F804302B492B4FDFF8D0A089B0C4
S214000F4004AC002502264FF00A08019258462A46AD
S214000F5093FBF8F303940295009605F08BFD234B64
S214000F6023492A46CDE9006338463346CDE9025484
S214000F7005F080FD2146384605F0E0FC1D4AD9F80C
S214000F8008301D4993FBF8F3CDE9006250462A4627
S214000F90CDE9025405F06EFDD9F80C30174ADFF89B
S214000FA0709093FBF8F3CDE9006248462A46CDE9F7
S214000FB00254134905F05EFD2146584605F0BEFC76
S214000FC02146504605F0BAFC2146484605F0B6FCD8
S214000FD02146384605F0B2FC09B0BDE8F08F00BFE8
S214000FE0C10D0000CEC60000F41C0020090E000053
S214000FF0DEC60000D90D0000F2C60000F10D0000AC
S214001000FCC60000F0730020E46100207C1D002078
S214001010BC73002000B58FB00AAB089302220023F1
S214001020CDE906324FF480616622CDE90221074AF7
S214001030019205220092CDE90433054A0549064887
S21400104005F098F80FB05DF804FB00BFCC50002008
S2140010508905000009C70000CC60002000B58FB0ED
S2140010600AAB089302220023CDE906324FF48061D2
S2140010706622CDE90221074A01920A220092CDE9B2
S2140010800433054A0549064805F074F80FB05DF8C4
S21400109004FB00BFCC6200206104000017C70000FC
S2140010A0CC72002000B58FB00AAB08930222002352
S2140010B0CDE906324FF480616622CDE90221074A67
S2140010C0019232220092CDE90433054A05490648CA
S2140010D005F050F80FB05DF804FB00BFCC400020D0
S2140010E0C90100001EC70000DC3F002000B58FB01D
S2140010F00AAB089302220023CDE906324FF4806142
S2140011006622CDE90221074A01920F220092CDE91C
S2140011100433054A0549064805F02CF80FB05DF87B
S21400112004FB00BFFC1D0020DD01000028C70000F6
S214001130FC2D002000B58FB00AAB089302220023D6
S214001140CDE906324FF480616622CDE90221074AD6
S21400115001921E220092CDE90433054A054906484D
S21400116005F008F80FB05DF804FB00BFEC2E002079
S2140011707D03000033C70000EC3E00201FB50D4B7A
S214001180D3F82824D3F81C140A4052060CD5402263
S214001190C3F82424084BD3F898216B463AB10022B2
S2140011A00221064803F04EFF05B05DF804FB04215B
S2140011B0F7E700BF00A0004000201442D41D002026
S2140011C0074BD3F82824D3F81C140A40120606D579
S2140011D08022C3F82424034B4FF0FF321A60704776
S2140011E000A00040E87400207FB500F029FA00F067
S2140011F0B9F800F047FB20B1254840F2773100F0FF
S21400120005FF002005F0D6FF20B1214840F27B31D3
S21400121000F0FCFE1F4806F095F820B11C4840F28E
S2140012207F3100F0F3FE1B4C00236FF07F42204618
S214001230C4E9013206F032F81749204606F022FBD0
S2140012400525012600231A46CDE9015613490095C7
S214001250204606F024FB1249009500230222CDE921
S2140012600156204606F01BFB05F0CEFFFFF7F6FD05
S214001270FFF7D0FEFFF73AFFFFF75CFFFFF7EEFE43
S214001280FFF710FF04B0BDE87040FFF74BBE00BF8D
S2140012903DC70000487400202CD7000046C7000059
S2140012A05CC70000074A084952F8203052F8202050
S2140012B051F82000A3EB920398422CBF0020012097
S2140012C0704700BF0075002010750020F0B54FF085
S2140012D080401E4C1E4F1F4E85B000F081FE00233E
S2140012E023702378032B06D94FF0804005B0BDE865
S2140012F0F04000F05FBE2378174DF95C4FF0804059
S21400130000F03EFE0021012369626A4631700A2021
S2140013106B6005F0CDF902236B606A6A23780F498B
S214001320DBB241F8232023780D49DBB251F8233095
S2140013309A4282BF2378DBB241F823200123337020
S21400134023780133DBB22370CBE700BF2075002083
S2140013508CC7000021750020008401401075002015
S2140013600075002030B5164D0FCD87B06C460FC403
S21400137095E8030084E803001248012100F0E6FE29
S2140013801148012100F0E2FE1048012100F0DEFEC7
S21400139001214FF48A4000F0D9FE0D4B0D4A1A6029
S2140013A04FF6FF72DA610C4A1A670C4B0C4A1A6544
S2140013B069464FF0804000F09BFD07B030BD00BF8F
S2140013C074C70000404105000012040000A204009B
S2140013D0008401400000010A0100002A00600E405F
S2140013E00003100001213222642330B5164D8162BD
S2140013F09624C0E90012C0E90243144941F2883439
S214001400C0E904540225C0E90B13C0E906544CF2A7
S21400141050330A2442F210714FF0000CC0E90D134D
S214001420C0E908C447F2305143F69824C0E90F419A
S2140014304FF44871C0E911120522C0E9132344F69F
S2140014402063436530BD00BFA0860100002D31013A
S21400145070B590B0A1F10803009301F108030C46A3
S2140014607E2602936946802305460393019606F07E
S214001470F2F8A31E04937C23059304A9631E284652
S214001480CDE9063606F0E7F8231F0893782309937C
S214001490E31E0A9308A97B2328460B9306F0DBF885
S2140014A0A31F0C9376230D93053C77230CA928469F
S2140014B00E940F9306F0CFF810B070BDF0B50D4641
S2140014C085B0052793FBF7F31446064605F0A2FF02
S2140014D06B1E00930135E31E6946013C30460193BE
S2140014E00295039406F0B7F805B0F0BD03EBD3738E
S2140014F05B1005F08FBF000070B504468CB00D463B
S21400150049BB0A46802306F03CF82A46294D80232C
S2140015100121204606F035F895E80F006E4686E86D
S2140015200F003146204606F096F804AE05F110038B
S2140015300FCB203586E80F003146204606F08BF8A4
S21400154095E80F0008AE86E80F003146204606F004
S21400155082F80CB070BD012913D00229F9D10022FF
S2140015601146802306F00DF8802300220121204634
S21400157006F007F8104B0FCB08AD85E80F0029469C
S214001580E4E700221146802305F0FBFF2946094DBB
S21400159080230022204605F0F4FF95E80F006E46F3
S2140015A086E80F003146204606F055F804AE05F1F1
S2140015B03003BDE790C70000B0C70000F8B5074687
S2140015C0002008F0E9FB08F03BFB0F26652408F036
S2140015D065FB054608F062FB95FBF4F190FBF4F220
S2140015E004FB115102FB1402384605F0DCFE013EF6
S2140015F0EDD1F8BD70B58CB08B1F00936E236F25B0
S2140016000C4601938B1D694606460293039506F029
S21400161022F8A4F10903CDE9043504A9E31F3046F6
S214001620CDE9063506F017F8E31D08A9093430465B
S214001630CDE90835CDE90A4506F00DF80CB070BDC9
S21400164013B54FF00111052001F04CFF042211469E
S2140016500023052002F008F84FF00111052001F0E4
S21400166041FF052100230422084601F0FDFF4FF04C
S2140016700111052001F036FF002301220621052076
S21400168001F0F2FF4FF00111052001F02BFF0023BF
S21400169001220721052001F0E7FF01240622234648
S2140016A01146CDE90044052001F040FF0722002343
S2140016B01146009301942346052001F037FF0648A3
S2140016C0214600F043FD054B4FF480621A604FF44C
S2140016D080221A6002B010BD00350A0000E100E06A
S2140016E0F0B585B0012510220021684608F0C0F943
S2140016F01C4F1D488DF80050294600F027FD1B485A
S2140017001B4C022101F002F92946384600F01EFD66
S2140017100026032338468DF806308DF802508DF8E3
S214001720086000F0A1FE4FF47A732A46B0FBF3F08F
S21400173031460390204602F069F8384600F094FEE1
S21400174032462946204601F0FDFF236C2B432364D6
S214001750636C43F01C0363646946204602F00EF88F
S21400176005B0F0BD8006160030253E0002001E00C3
S2140017700060044008B506F081FCFFF735FDFFF772
S214001780AFFF06F088FC002008BD704708B50421AE
S214001790112001F0BBF80948012100F0D7FC0848E9
S2140017A0022101F0B3F80748022101F0AFF806481D
S2140017B0022101F0ABF8002008BD00BF30253E0036
S2140017C002001E00030020000500240008B5224B7E
S2140017D001225A64214BD3F8FC20214B120E12D161
S2140017E04AF6E851C3F89011D3F8981141F0040175
S2140017F0C3F89811C3F89021D3F8642142F400523C
S214001800C3F8642101E0012AF6D0164A136A23F4CD
S214001810441343F488131362A2F58052D2F8A4311D
S21400182043F4F843C2F8A43106F0CCF800F040F8D0
S21400183006F066F806F088F806F0B0F8FFF7A6FFA0
S21400184006F074F800F028F807F0E0F902F0C2F9A4
S214001850BDE8084002F0D0B900000E400081E00F5D
S21400186000300E4000400E4002F0EAB900F004B826
S21400187006F07AB970477047014800F0EFB900BF2C
S214001880D0C7000008B5042201230F21032001F071
S214001890EBFE002008BD000008B50448012100F05A
S2140018A055FCBDE80840FFF770BF00BF00350A00D2
S2140018B00148012100F04ABC00350A002DE9F0413C
S2140018C01A4E0446884617460FCE86B06D460FC59C
S2140018D096E8030085E8030015482568012100F016
S2140018E035FC6068012100F031FC617B207B002321
S2140018F0042201F0B9FE617A207A0023042201F066
S214001900B3FE28466946CDF80880ADF8107002F0A0
S2140019106FF8237CA27B1B0643EA0223AB670020FA
S2140019200A236B6706B0BDE8F08100BFE8C7000079
S21400193000350A0070B506680C468D18AC4201D119
S214001940002070BD14F8011B304602F0ABF8F5E736
S214001950026813699B06FCD57047000013B5044661
S21400196006F01CFA247B00230122CDE90032640035
S214001970034AB0FBF4F1034806F058F902B010BD74
S2140019808919000024750020024B4FF40052C3F85A
S214001990A820704700A0004073B50F4B0F4E4FF4C1
S2140019A08045C3F89C500446407B06F077FB042332
S2140019B002220DF106013046ADF80630FFF7BAFFF9
S2140019C03046FFF7C5FFA07B06F068FB044B0020FF
S2140019D0C3F89C5002B070BD00A000463410002032
S2140019E000A0004438B5044601211248124D00F00C
S2140019F0ADFBA16811480022FFF760FF0023042218
S214001A000E21032001F030FE002304220D210320C6
S214001A1001F02AFE94E80F0085E80F00084B01222B
S214001A2020461A70FFF79AFF2046FFF7B5FF002002
S214001A3038BD00BF00350A00447500203410002071
S214001A40407500202DE9F74F0688DFF8A4B09846C9
S214001A5003795E43254B14464FF48042C3F89C201E
S214001A600134A4B20546407B0F4606F017FB23025E
S214001A7043F001031E48ADF8063002220DF10601C0
S214001A800134FFF757FF2402F610A4B24FF0000906
S214001A9008F1FF3AC1450ED11548FFF759FFA87B5C
S214001AA006F0FCFA134B4FF480420020C3F89C204B
S214001AB003B0BDE8F08F394632465846FFF73AFF86
S214001AC0CA4514BF44F0FF034FF6FF7302220DF120
S214001AD00601584604F58074ADF806303744FFF723
S214001AE029FF09F10109A4B2D4E700BF00A000460F
S214001AF03410002000A00044034B04481B78002B41
S214001B0008BF0020704700BF4075002044750020C5
S214001B101FB5054B0FCB6C4684E80F002046FFF739
S214001B2061FF04B010BD00BF00C80000FEE7000063
S214001B3008B500F069F8064B0649074A8B4201D300
S214001B40FEF708FB52F8040B43F8040BF6E700BF59
S214001B50001000207011002058DF00000048704779
S214001B60005A6202104AD2F8943003F00703023B90
S214001B70032B13D8DFE803F00C14020E0B4B1B6884
S214001B80D2F80001C0F304200130B3FBF0F0704738
S214001B90074BF4E7074B1B685B08F1E7054BEEE7DE
S214001BA04FF40043ECE700BF00400E405410002006
S214001BB04C1000205010002008B5FFF7D3FF054B4F
S214001BC0D3F80831C3F308230133B0FBF3F0024B1C
S214001BD0186008BD00400E4048100020014B1868F1
S214001BE0704700BF4C100020054B1860054BD3F81B
S214001BF0943003F00703022B01D1FFF7DDBF7047D7
S214001C004C10002000400E40044B054A9A60D3F862
S214001C10882042F47002C3F88820704700ED00E088
S214001C20000000004FF4004070474FF47A70704791
S214001C30014B1868704700BF5410002005490A6819
S214001C401318054883428CBF4FF0FF320B601046D6
S214001C50704700BF5810002000000420D0E90003A1
S214001C601847000038B50D46044618B3012824D09E
S214001C70022825D0032826D004280ED0052825D0F3
S214001C80831F012B09D9082823D0092823D00A2826
S214001C9003D10723EB40DB0704D410484FF47971D7
S214001CA000F0B4F930200E4B0121444301FA05F54B
S214001CB01D5138BD40F2FF33ECE74FF6C073E9E73D
S214001CC040F6FF73E6E74FF47F43E3E74FF6FF7314
S214001CD0E0E70F23DEE74FF44043DBE710C80000E1
S214001CE00CA0004438B50D46044618B3012824D08D
S214001CF0022825D0032826D004280ED0052825D073
S214001D00831F012B09D9082823D0092823D00A28A5
S214001D1003D10723EB40DB0704D4104840F21341FD
S214001D2000F074F930200E4B0121444301FA05F50A
S214001D301D5138BD40F2FF33ECE74FF6C073E9E7BC
S214001D4040F6FF73E6E74FF47F43E3E74FF6FF7393
S214001D50E0E70F23DEE74FF44043DBE710C8000060
S214001D600CA0004610B501210446094800F0EEF923
S214001D700848012100F0EAF9A37820786178B3FAE0
S214001D8083F35B09042201F06FFC002010BD00BF46
S214001D904041050000350A000346007859789B78D4
S214001DA00BB9FFF75FBFFFF79DBF03460078597872
S214001DB09B780BB9FFF796BFFFF754BF38B504788A
S214001DC045782CB3012C26D0022C27D0032C28D003
S214001DD0042C0ED0052C27D0A31F012B09D9082CC4
S214001DE025D0092C25D00A2C03D10723EB40DB078E
S214001DF004D4114840F22E4100F008F93022544332
S214001E0004F18044012304F52044AB40A36138BDAF
S214001E1040F2FF33EAE74FF6C073E7E740F6FF739A
S214001E20E4E74FF47F43E1E74FF6FF73DEE70F2367
S214001E30DCE74FF44043D9E710C8000070B50478DB
S214001E404578064654B3012C2BD0022C2CD0032CFC
S214001E502DD0042C0ED0052C2CD0A31F012B09D975
S214001E60082C2AD0092C2AD00A2C03D10723EB40B1
S214001E70DB0704D4134840F2FE3100F0C7F83023E5
S214001E805C43114B234405EBC305AD00B3782868CB
S214001E90C0B213B9B0FA80F0400970BD40F2FF330B
S214001EA0E5E74FF6C073E2E740F6FF73DFE74FF46F
S214001EB07F43DCE74FF6FF73D9E70F23D7E74FF4EE
S214001EC04043D4E710C800000CA0100270B50546C9
S214001ED00E46144600F0ACFE296881EA040202EAC7
S214001EE006044C402C60BDE8704000F0A5BE000023
S214001EF0B0F1804F38B504460D4606D01D4B9842CB
S214001F0003D01D48A22100F081F82B693F2B03D98E
S214001F101948B62100F07AF8EB683F2B03D916482B
S214001F20B72100F073F86B683F2B03D91248B8212D
S214001F3000F06CF86B682A781B0643EAC27343F419
S214001F4000432360EA682B7A43EA0243A3622A69C5
S214001F506B7A43EA0243E362AA7A084B43EA0273C7
S214001F60636004F1424404F5801464012B7D236011
S214001F7038BD00BF0004004087C8000000FD000414
S214001F80B0F1804F13B50A46044608D0074B984276
S214001F9005D001910648F52100F038F8019AFF2196
S214001FA0201D02B0BDE81040FFF790BF00040040BF
S214001FB087C80000B0F1804F10B5044607D0064B26
S214001FC0984204D0054840F21B1100F01FF8236821
S214001FD023F00103236010BD0004004087C8000002
S214001FE0B0F1804F10B5044607D0064B984204D097
S214001FF005484FF49C7100F009F8236843F001038C
S214002000236010BD0004004087C80000FEE7000003
S2140020100C4B984210D90C4B984210D9022201233F
S2140020200A490B640A49D1F8003123F0807343EA69
S2140020300263C1F80031704700221346F0E7012220
S214002040FBE700BF0048E8010090D0030000C8434B
S21400205000400E4038B5114B5B68114B00221C4601
S214002060C9B21D798D4202D11D68854212D2013255
S214002070052A03F10803F4D10A4841F23A41FFF772
S214002080C5FF032205494B6823F0407343EA026309
S2140020904B6038BD04EBC2025279F3E700000E40F5
S2140020A018CA0000FDC800001F2810B5044604D951
S2140020B0034840F22F11FFF7A9FF0120A04010BDF2
S2140020C072C9000038B5074C41F67133256C23649D
S2140020D0FFF744FD0021FFF7BDFF0DB10023236489
S2140020E038BD00BF00000E40044BDB6B5B0604D41B
S2140020F0034AD2F8C830002BFBD1704700300E40A0
S2140021000000C64308B5FFF7EFFF024B5868C0F360
S214002110014008BD00300E40044BD3F84421D207DE
S21400212003D4D3F840211042FBD1704700400E4044
S21400213038B5054C41F67133256C2364FFF78AFFEA
S2140021400DB10023236438BD00000E4038B5C0F33F
S2140021500323013B092B24D8DFE803F02A2D232391
S214002160051619231C20154C0023C0F3043513B1A3
S2140021701846FFF7D1FF04F1424404F5801405EB3E
S214002180C404A400216038BD0D4C0123EDE70D4CBE
S2140021901023EAE70C4C4FF48033E6E70B4C0023A1
S2140021A0E3E7BDE838400A4841F6D711FFF72EBFEF
S2140021B0084C0023D9E7084C0023D6E7B0400E4071
S2140021C0E0400E40E8400E40F0400E4050410E40C9
S2140021D0FDC8000000400E40C0400E4008B5C0F3E9
S2140021E00313013B092B60D8DFE803F0050B0F193A
S2140021F05F5F1F233C532E4BD3F80001C0F304202F
S21400220008BD2B4BD3F81401F8E7294BD3F800018F
S214002210C0F300600130FFF747FF0138F0E7244BBA
S214002220D3F80C01C0F30820EAE7214BD3F80801E5
S214002230F8E7204B984209D01F4B98420CD041F645
S2140022407B311E48FFF7E2FE0020D9E7184BD3F893
S214002250200100F00F00DEE7154BD3F82001C0F395
S2140022600110D8E7164B984208D003F5B01303F5D3
S2140022708053984206D041F69F31E2E70C4BD3F8E4
S2140022802801ECE70A4BD3F82801C0F301200430FC
S214002290C1E70C4B984205D1054BD3F8300100F04E
S2140022A00300ADE741F6AE31CBE741F6D331C8E7E0
S2140022B000400E408006160080162E00FDC8000066
S2140022C090171A00A009140008B5FFF787FF013021
S2140022D008BD000000F00F00013808B5072844D8F4
S2140022E0DFE800F0040F1943232D4335264BD3F8BF
S2140022F0943003F00703023B052B3DD8234AD05CFD
S21400230008BD214BD3F8803003F00703013B032BB5
S21400231034D81F4AF3E71C4BD3F8843003F0070386
S214002320013B032B2AD81B4AE9E7174BD3F8883022
S21400233003F00703013B032B20D8174ADFE7124BB5
S2140023401B6F13F0010F0CBF07200920D8E70E4BB8
S214002350D3F85C3103F03003202B11D0302B11D092
S214002360102B14BF01200720CAE70C4841F627713E
S214002370FFF74CFE0020C3E70520C1E70120BFE7BA
S2140023800420BDE70820BBE700400E40EBC9000074
S214002390F1C90000F5C90000F1C90000FDC8000041
S2140023A038B52C4B984205460AD02B4B984207D09E
S2140023B02A4B984204D02A4841F23A51FFF726FEAB
S2140023C02846FFF787FF234B9D42044611D0224B39
S2140023D09D4212D0214B9D4213D1224BD3F8804010
S2140023E004F00704042C2DD8DFE804F02A11151D8C
S2140023F019001C4BD3F88440F2E71A4BD3F88840F8
S214002400EEE7174841F26951FFF700FEEAE7BDE83C
S2140024103840FFF707BCBDE83840FFF709BCBDE809
S2140024203840FFF702BCFFF79DFB0E4B0446D3F87F
S2140024300001C0F300600130FFF736FEB4FBF0F495
S214002440204638BD064841F2BB51FFF7DFFD0024A9
S214002450F6E700BF030020000500240002001E006F
S214002460FDC8000000400E4038B500F47813B3F500
S214002470B01F05467FD02ED8B3F5402F69D011D8AF
S214002480B3F5802F54D006D843B1B3F5003F5AD0E9
S21400249041F607311AE0B3F5202FF9D1BDE83840F0
S2140024A0FFF760BBB3F5801F00F0A280B3F5A01F56
S2140024B057D0B3F5602FEBD15B48FFF70BFF07282B
S2140024C000F096800928E9D041F2FC215748FFF732
S2140024D09DFD002036E0B3F5381F5AD013D8B3F56B
S2140024E0001F5FD00AD8B3F5D01F5DD0B3F5F01F3C
S2140024F0CED14F48BDE83840FFF752BFB3F5101FA6
S214002500C6D14C48F6E7B3F5481F57D0B3F5781F49
S21400251000F08280B3F5401FBAD14748FFF740FF6E
S214002520464B0446D3F82801C0F3012004302BE0C4
S214002530FFF718FB414BD3F80C31C3F308230133E4
S214002540B0FBF3F038BDFFF70DFB3C4BD3F808317A
S214002550F3E7FFF707FB394BD3F81431C3F3042333
S214002560EDE73448FFF71CFF344BD3F8303103F067
S2140025700303D840E6E72E48FFF712FF2F4B04462A
S214002580D3F8200100F00F00FFF78EFDB4FBF0F04B
S214002590D8E72748FFF704FF284BD3F82031C3F3CA
S2140025A00113E6E72448A5E72348FFF7F9FE234B87
S2140025B00446D3F82801C0F30110E5E72048FFF7EA
S2140025C089FE0138072824D801A353F820F000BF5D
S2140025D0D32400001326000013260000F725000071
S2140025E01326000013260000F1250000FF2500003A
S2140025F0144B1868A6E7BDE83840FFF7EFBAFFF7B8
S214002600B1FA0E4BD3F80031C3F3042303FB0000EA
S21400261098E741F2333159E7FFF7A4FA0446284613
S214002620FFF752FEB2E700BF06000E00FDC800002E
S21400263002001E00050024000300200000400E409B
S214002640B80032005C100020014B1880704700BFB5
S21400265060100020013838B50C46032864D8DFE83F
S21400266000F002441A2FB1F5007F04D3324842F23C
S2140026702571FFF7CBFC314AC4F30804D2F868385A
S214002680002BFBD12E4A136A23F4FF7323F00103B9
S2140026902343136238BD7F2904D9274842F232719A
S2140026A0FFF7B4FC254A04F07F01D2F86038002B0F
S2140026B0FBD1234B1C6924F07F040C431C61E9E723
S2140026C07F2904D91C4842F24D71FFF79FFC1B4A34
S2140026D004F07F01D2F86438002BFBD1184B9C69BC
S2140026E024F07F040C439C61D4E7154DD5F8903058
S2140026F05B0704D5104842F25D71FFF787FC6B6AF2
S21400270023F0300343F010036B62C4F3C311CB1CF9
S2140027102A6B0C490F2B01EA020128BF0F23214325
S21400272041EA03712963B5E7BDE83840024842F242
S2140027307771FFF76BBC00BFFDC800000020C843E0
S21400274000400E4000F8FF0F022810B50C4604D0DB
S214002750144842F28F71FFF759FC134B5B6A13F073
S214002760300F1BD0202C16D0302C17D0B4B10D480B
S21400277042F2AA71FFF74AFC0C4B0B4AD2F89010B3
S21400278033EA0101FAD15B024ABFD2F8A000012069
S214002790C0F3802010BD4FF40003EEE74FF4400373
S2140027A0EBE700BFFDC8000000400E40FF33E10726
S2140027B0022808B50CD129B1094B4FF48060C3F844
S2140027C0A80059664AB1BDE808400220FFF7BCBF22
S2140027D0044842F2E071FFF719FC012008BD00BF73
S2140027E000400E40FDC8000004282DE9F0470446CE
S2140027F00F4691461FD83D4B3D4A13F800A03D4B6F
S21400280013F80080F1B93C4B33F8103013660123FF
S21400281003FA08F8D2F8903013EA080FFAD1B9F1A3
S214002820000F5AD00125324A05FA0AF5D2F8903040
S2140028302B42FBD151E0BDE8F047304842F27461CC
S214002840FFF7E4BB2E4B022833F8106047D1536ADB
S21400285013F0300F43D12B4BDB6B5A0504D42748BB
S21400286042F28361FFF7D2FB214A536ADB0705D5A4
S214002870536A23F0300343F010035362224D1C4B7F
S214002880A8441E664FEA8808D8F80030002BFBD014
S214002890B9F1000F21D05544AD002B68002BFCD0B9
S2140028A0022C1AD1CFB1124F796A11F0010118D05B
S2140028B0012220212046FFF77BFFD7F89C4001220B
S2140028C000210220FFF790FFC4F30A010220FFF761
S2140028D0C1FE3E662B68002BFCD0BDE8F0870027C3
S2140028E0CCE72046FFF730FFE7E700BFF9C9000056
S2140028F000400E40FEC900000ECA0000FDC80000E1
S21400290004CA000000300E408004F210112838B5CA
S2140029100C460FD000F00F000138072800F2EB80BD
S214002920DFE810F0240066009A00E9007D00B4009D
S214002930E900C200042912D1FFF750F90546A8B1F4
S2140029400021284600F082FA023C0A2C45D8DFE82F
S21400295004F04A473137444444443D0F4D000529AE
S21400296004D1664B1D68664B9D42E9D80025EBE70F
S2140029700320052401221146FFF736FFFFF7A2FBCE
S2140029800DB1FFF7B1FB5F4B5C67FFF715F9044627
S214002990FFF7E8F8FFF73CFBFFF7B4FB01462046DD
S2140029A0FFF7C6FB002D5DD128460121BDE8384063
S2140029B000F04CBA5448FFF72BFB02200446D9E738
S2140029C05148FFF725FB01240320D3E741F6E871C1
S2140029D0BDE838404D48FFF719BB41F6ED71F7E703
S2140029E001200324C6E700200424C3E70724C5E724
S2140029F0062933D14548464D42F22C01FFF706FB27
S214002A00424842F23C01FFF701FBFFF7ABF8FFF745
S214002A10FFFA404B0122C3F80826032321E00629CB
S214002A203D4DEDD0013C092C2BD801A353F824F0E2
S214002A30892A0000672A0000752A0000832A000001
S214002A40832A00000B2A0000832A0000832A000045
S214002A50832A0000612A0000304DE3E72C4DE1E7B1
S214002A6004232B6038BD012211460020FFF7BCFE70
S214002A700223F6E7012211461046FFF7B5FE0123B2
S214002A80EFE742F26701A3E70023EAE7072904D04D
S214002A90092906D042F2F1019AE71A4B00221A677A
S214002AA0E0E7184B0122FAE74C1E072C1ED8DFE899
S214002AB004F0201D1D161D1D0F0403221149D1F818
S214002AC05C3123F0300343EA0213C1F85C31C9E7F6
S214002AD0012211460420FFF787FE0122EEE70122BD
S214002AE011460220FFF780FE0222E7E742F24F116E
S214002AF06EE70022E2E742F2262169E75010002046
S214002B00002D310100400E400148E801FDC80000DC
S214002B1080400E400010C84388400E4084400E405F
S214002B2010B504461120FFF7D5FB042804D127482A
S214002B3042F20F51FFF76AFA012200210220FFF746
S214002B4053FE63781BB9A3780BB9E37823B11F480B
S214002B5042F24B51FFF75AFA237C012B04D11B4853
S214002B6042F25251FFF752FA194A217C536A23F077
S214002B700103022908BF43F001035362154B217875
S214002B80C3F8A014637AA18843EAC123D362136B07
S214002B90A07A217A03F07F630343E08843EAC023E8
S214002BA043EAC11303310F2928BF0F2143EA0173FB
S214002BB01363A37B617B1B0143EA0133E17B0B4379
S214002BC0217B43EA0143536310BD00BFFDC80000EC
S214002BD000400E400000C84370B505461120FFF7C0
S214002BE079FB022804D10F4842F2CD51FFF70EFAC6
S214002BF00D4E0E4BB26B2C7813401C436B7844EA98
S214002C00C324AB7844EA0364EB7844EA0324B36B4A
S214002C10A34205D0002101220846FFF7E5FDB46374
S214002C2070BD00BFFDC8000000400E4080E4FFF805
S214002C30EFF3108072B6704700B962B67047EFF3D4
S214002C401180602383F31188704780F311887047E2
S214002C50034B5868C0F30800003818BF01207047BF
S214002C6000ED00E0EFF31083DB0706D4EFF31180EE
S214002C705F2894BF002001207047012070470000A5
S214002C80034BD86B80F04000C0F38010704700BF45
S214002C9000300E4038B542EA0323B3F5007F054600
S214002CA00C463ED019D8B3F5807F36D00AD883B309
S214002CB0012B21D01F4840F68E11FFF7A7F90022FE
S214002CC013461FE040F201129342F3D11A4BD3F899
S214002CD024321A0EC3F3074314E0B3F5407F24D022
S214002CE040F20132934210D040F201229342E1D1E9
S214002CF0114BD3F8283202E00F4BD3F82432C3F33B
S214002D000722DBB22B60226038BD0B4BD3F828328B
S214002D10DFE7094BD3F81C32F1E7074BD3F81C3238
S214002D20D7E7054BD3F82032E9E7034BD3F8203238
S214002D30CFE700BF40CA00000081E00F08B5FFF7EC
S214002D409FFF20B1024AD2F8C830002BFBD108BD45
S214002D500000C6431A4B022810B5D3F830320C4692
S214002D6012D0032813D0012814BFDBB2C3F3072305
S214002D701B0323F47042ECB95AB140F61D111148FA
S214002D80FFF744F9002010BDC3F30743F0E71B0E1E
S214002D90EEE70D49CA6E22F470421343CB6601205B
S214002DA0F1E70949D1F8EC2022F470421343C1F848
S214002DB0EC30F4E7002AF4D040F62911DFE700BF34
S214002DC00081E00F40CA000000300E40F8B504460F
S214002DD00F46FFF755FF78B3FFF7B0FF174B5B685A
S214002DE0C3F301439C4227D0154BD3F80061FEF78E
S214002DF0B9FE022C05460FD1124BC6F3042606FB7D
S214002E0000069E4204D9104840F23161FFF7FEF8F2
S214002E1002212846FFF78CF9C4F1020210239340E2
S214002E20064A13610FB1FFF789FF2CB921462846E1
S214002E30BDE8F840FFF77CB9F8BD00BF00300E4093
S214002E4000400E40002D310140CA000013B5024676
S214002E50FFF716FFC8B152B90D4B0191D3F80041E8
S214002E60FEF780FEC4F30422019902FB0002094B20
S214002E701B7843B1084B9A4205D8022002B0BDE841
S214002E801040FFF7A3BF0020F8E702B010BD00BF58
S214002E9000400E405A750020002D31010378134A79
S214002EA0002B437870B514BF04260026002B8378C9
S214002EB0946914BF02250025002B037924F03F04F3
S214002EC043EA0403C47814BF08210021012C08BF7C
S214002ED043F0010333432B430B439361136841795B
S214002EE023F4403343EA0143136070BD00300E40C4
S214002EF0224B4AF6E85210B5596B5A639A6FD207BE
S214002F00FCD41B6C13F003031EBF1D4A0124C2F839
S214002F10B44A834204D110B9194BC3F8B40A10BDA1
S214002F20032B00D09BB9431E012B10D8134A4FF435
S214002F300023D362936FDB07FCD4136C23F00303E8
S214002F4043F0010313640D4A536A1C03FCD50B4B74
S214002F509A6FD207FCD41A6C22F0030202431A645A
S214002F609A6F12F00102FBD10038054C18BF012001
S214002F700129C4F8B40A08BF5A63D0E700300E40EF
S214002F800000C6432DE9F04FA0F5E16389B00024A8
S214002F90B3F5966FCDE90244CDE90444CDE9064485
S214002FA006468A46934605D940F6EE215548FFF771
S214002FB02DF8A3E0B0F5E16F534B8CBF0122002241
S214002FC049D1D3F81832C3F30721DBB20791049333
S214002FD04FF416754FF4966748E0BBF1000F0ED01D
S214002FE0D9F85C2022F4FE4222F00202B6F5E16F28
S214002FF042EA012218BF02200243C9F85C20BAF157
S214003000000F26D020460021FFF7A4FE044610B984
S21400301040F64B31CAE701214046FFF79BFE0446C7
S21400302010B940F65331C1E7384A536EBD4238BF37
S2140030303D4623F4FF73E72D23F0010328BFE72561
S214003040B6F5E16F18BF43F0010343EA4503536644
S21400305054E0012452E0D3F81832190EC3F30743A4
S214003060079104934FF496654FF4E167DFF89C9060
S214003070D9F84C400192C4F30174234605A902A86E
S214003080FFF708FED9F8EC30019AC3F3012843464F
S21400309006A903A8FFF7FEFD049BF01B079FF91A7D
S2140030A04143B1FBF5F299182CBF012300238F4250
S2140030B01ED3EBB9069A039FD31B4343B3FBF5F32A
S2140030C0FF182CBF01230023BA4211D383B9059BF6
S2140030D0029AA3EB020C00FB0CF0B0FBF5F55519B9
S2140030E02CBF01200020AB4202D300283FF475AF6E
S2140030F0044840F63C31FEF789FF0024204609B01C
S214003100BDE8F08F40CA00000081E00F00300E409E
S214003110334A08B5136FD16C11F0010F03F00603A4
S21400312044D0002B42D0132857D9143813288CBF0C
S214003130102308232A49013BCA6C180322F47F4255
S21400314040EA03231343CB64264BCA6C1B88C2F3A6
S21400315003222833013202EB820003EB5303B3FB56
S214003160F0F3C86C013B072B28BF072320F0EE6066
S21400317040EA036343F48013CB641B4BB3F900307F
S214003180002B12DB03F12800C0F34E030344500863
S21400319000EB4202B3FBF2F20B6D072A28BF0722B0
S2140031A023F0700343EA02120A6508BDD16C01F0F1
S2140031B00101194304D109280FD90A380928B6E7AE
S2140031C0D26CD20702D50BB92728B0E7074840F6DD
S2140031D09131FEF71BFF0023ACE70423AAE700BFEC
S2140031E000300E40567500205875002040CA00007A
S2140031F00C4BD3F8803910B5044633B9012804D9EE
S214003200094840F6AF31FEF701FF084A136F23F076
S214003210070323431367064BBDE810401888FFF7E3
S21400322077BF00BF0000C64340CA000000300E4013
S2140032305475002038B55A4B02229A639B6B03F0F4
S2140032400F039342044607D0564840F64B21FEF73C
S214003250DDFE0025284638BD0389C82B04D9514811
S21400326040F65521FEF7D2FEA28823899A4204D959
S2140032704C4840F65621FEF7C9FEB4F90C30C82B70
S21400328004DD484840F65721FEF7C0FE6378012B60
S21400329055D1A388C82B04D940F65B214148FEF7D8
S2140032A0B5FEE28842F210739A4204D93D4840F6D1
S2140032B06821FEF7ABFEE3884A2B48D9B3F5FA7FC0
S2140032C047D340F6C312934294BF4FF000524FF0DC
S2140032D040523349B4F90C00CB6C23F0405323F032
S2140032E001030028A8BF43F001031343CB64D1F8C1
S2140032F0EC30A28843F44073C1F8EC302A4B1A80B5
S214003300CB6E43F08073CB66284BD3F8800900B1B0
S2140033100420FFF76DFF264B21891980254BB4F951
S2140033200C20A0881A80FFF7F3FEA37BA3B1012B25
S21400333022D01C4840F6CE01FEF768FE0FE0022BB6
S214003340AFD1A3880A2BACD94FF42661A6E700229A
S214003350BFE74FF08052BCE7114B174A9A6501222F
S21400336060881146FFF70EFE054640B90D4840F648
S2140033709F21FEF74BFE6DE7094B104AEEE7084A21
S214003380D36B43F48063D3636078FFF7B1FDA37A11
S214003390A3F1200253425341044AC2F8943759E736
S2140033A000300E4040CA0000547500200000C6439E
S2140033B0567500205875002077402057372110B7E3
S2140033C038B50D46044618B3012824D0022825D067
S2140033D0032826D004280ED0052825D0831F012BCD
S2140033E009D9082823D0092823D00A2803D107237F
S2140033F0EB40DB0704D4104840F21341FEF706FE0C
S21400340030200E4B0121444301FA05F51D5138BD0D
S21400341040F2FF33ECE74FF6C073E9E740F6FF7380
S214003420E6E74FF47F43E3E74FF6FF73E0E70F234B
S214003430DEE74FF44043DBE710C800000CA0004670
S21400344038B50D46044618B3012824D0022825D0E6
S214003450032826D004280ED0052825D0831F012B4C
S21400346009D9082823D0092823D00A2803D10723FE
S214003470EB40DB0704D410484FF47971FEF7C6FD25
S21400348030200E4B0121444301FA05F51D5138BD8D
S21400349040F2FF33ECE74FF6C073E9E740F6FF7300
S2140034A0E6E74FF47F43E3E74FF6FF73E0E70F23CB
S2140034B0DEE74FF44043DBE710C800000CA00044F2
S2140034C070B505460E461446FFF7B2FB296881EA3A
S2140034D0040202EA06044C402C60BDE87040FFF788
S2140034E0ABBB0000032838B504460D4607D90428B0
S2140034F008D0052803D0A0F10803022B02D835F027
S214003500011303D008487D21FEF780FD302060437C
S21400351000F180402A464FF00111BDE8384000F522
S2140035202040FFF7CDBF00BFB5CA00002DE9F0412F
S2140035300E4615461F46044600285FD0012860D078
S214003540022861D0032862D004280ED0052861D056
S214003550831F012B09D908285FD009285FD00A28C5
S21400356003D10720F040C30703D43748BF21FEF736
S2140035704DFD86EA050333F0030303D03248C1212C
S214003580FEF744FD072D06F003064FF00F0149D85D
S2140035904FEA85082D4804FA08F201FA08F1FFF709
S2140035A08FFF03212A4806FA08F201FA08F1FFF70E
S2140035B087FF1F2D03D927489121FEF727FD264CAC
S2140035C02C44A4001F2D276003D922489121FEF722
S2140035D01DFD9DF81830C4F88030204A0123AB400A
S2140035E01F2DC2F8243403D91A489121FEF70EFD88
S2140035F09DF81C30C4F80033BDE8F08140F2FF307F
S214003600B0E74FF6C070ADE740F6FF70AAE74FF49C
S2140036107F40A7E74FF6FF70A4E70F20A2E74FF41E
S21400362040409FE7A5F108084FEA88080C4804FACE
S21400363008F201FA08F1FFF743FF0321094806FAEA
S21400364008F201FA08F1B2E7B5CA000000A400408B
S21400365008A400402BCB00008020851000A000406E
S21400366004A400400CA40040F8B50D4616461F46BC
S2140036700446D8B301283CD002283DD003283ED0CB
S21400368004280ED005283DD0831F012B09D9082811
S2140036903BD009283BD00A2803D10723EB40DB07A1
S2140036A004D4274840F21D11FEF7B0FC26B1294687
S2140036B020467FB3FFF784FE3020604300F1804051
S2140036C0072D00F5204028D84368AA000F21914016
S2140036D023EA010306FA02F21343436076BB294647
S2140036E020463FB3BDE8F840FFF76ABE40F2FF331E
S2140036F0D4E74FF6C073D1E740F6FF73CEE74FF43A
S2140037007F43CBE74FF6FF73C8E70F23C6E74FF4B8
S2140037104043C3E7FFF794FECEE7A5F108038268AF
S2140037209B000F21994022EA010206FA03F3134395
S2140037308360D3E7BDE8F840FFF782BEF8BD00BF60
S214003740B5CA00000B4B984270B504460E461546A7
S21400375004D1012902D8130C1B041BB10648D92139
S214003760FEF754FC16B1012E02D070BD2561FCE7B1
S2140037706561FAE700600440A1CB000038B5214B34
S214003780984205460C4604D01F484FF4B371FEF726
S2140037903DFC217839B9AB68DB0704D56B6B98071D
S2140037A0FCD402236B606378A078002B08BF00224D
S2140037B0E36818BF4FF4805200B91BB142F40072A0
S2140037C003B12B61E3780BB142F4807223790BB11D
S2140037D042F0400263790BB142F08002E379A079AF
S2140037E01B0143EA8003207A034313432B6039B15D
S2140037F0AB68DA0704D46B6B9B07FCD401236B60C1
S21400380038BD00BF00600440A1CB00000C4B9842BE
S21400381070B504460E46154604D1012902D832F08A
S214003820FF0304D007484FF4FD71FEF7EFFB16B117
S214003830012E02D070BDA561FCE7E561FAE700BF86
S21400384000600440A1CB0000022838B504460D46AF
S21400385003D911484C21FEF7D9FB6B791F2B03D9EE
S2140038600D484F21FEF7D2FBAB786A789B0143EAFE
S21400387082032A781343EA7843EA02132A7943EA52
S214003880C2236A7943EA0233AA79043443EA4243FC
S2140038902401024A135138BDD4CB00000020044056
S2140038A0014B1860704700BF0000844242780179DF
S2140038B00378002A827870B514BF04260026002AF2
S2140038C0C27814BF10250025002A42794FEA02323A
S2140038D042EA012242EA0302837914BF202400242C
S2140038E0002BC37942EA034343EA0603027A43EA1B
S2140038F0050314BF4FF4004100212343002A14BFE0
S2140039004FF4003200220B431343014A136070BD8C
S2140039100020044070B506460C46154622B90D48F0
S2140039204FF42271FEF772FB1CB90B48FEF79CFDA4
S21400393004460A4B6D00013CB4FBF5F413EA04237D
S2140039404FEA042504D0034840F2A521FEF75EFBAB
S214003950756170BD4ACC000040410500070080FF3D
S21400396038B51E4B1E4D984204460ED0A8420CD0C9
S21400397003F50063984208D003F58063984204D0AC
S214003980184840F22E41FEF741FB40F6AA63E3607A
S21400399041F20502002323606260134AA36063615C
S2140039A0E364A26423666367A367E3670B4B9C42EA
S2140039B009D0AC4207D003F500639C4203D003F560
S2140039C080639C4201D1002323650023AC42A3659B
S2140039D002D0064A944200D1E36538BD000001409B
S2140039E0000401404ACC0000F9FF0100000C014031
S2140039F038B52A4B984204460D4610D003F580632E
S214003A0098420CD003F58063984208D003F5806393
S214003A10984204D022484FF45671FEF7F7FA204633
S214003A20FFF79EFFA97B2A8A2368002942F001023D
S214003A3014BF4FF48061002113430B432A7D23609B
S214003A402368002A14BF4FF000520022134323605D
S214003A50AB7C1BB1EB7C43F08003A3652B7B43F46C
S214003A6080536360D5E901122046FFF753FF6B7B56
S214003A700BB11023E3606B7D1BB1236843F48033E6
S214003A802360AB7DEA7D1B07120503F0E04302F4DA
S214003A90E002134323662B78E36038BD0000014044
S214003AA04ACC000003695B06FCD541637047000002
S214003AB02DE9F047374FDDE9088406461546994656
S214003AC08A4641B9082323704FF4D963A360324B6A
S214003AD06760E360FEE75AB1531E134208D008231E
S214003AE0237040F2CB63A3602B4B6760E360FEE776
S214003AF0FFF7A5F8002D08BF04254D4538BF4D46F5
S214003B00D6F808E06B1E13EA0E0FC5F1000202EAB3
S214003B100E0208BF0025154409F1FF33AA4413EA34
S214003B200A0FC9F1000202EA0A0208BF4FF00009B4
S214003B3002EB090372680132A2EB0E01A3EB0E0E34
S214003B407145844615491AD2B8F1000F02D09B1A67
S214003B50C8F80030162540F22273C4E902312570F9
S214003B6067606046FFF771F840F2D763A3600A4BC0
S214003B7025706760E36000252846BDE8F087B360DF
S214003B80002323704FF4E563C4E902316760FFF752
S214003B905CF8F1E7C1CC000062CD00004ACD000021
S214003BA030B50C4685B011461D461BB9039200F091
S214003BB019F803990648019500230093042201236F
S214003BC0002C18BF2046FFF773FF05B030BD00BFBE
S214003BD064100020024B00221A6003F09BB800BF5E
S214003BE05C990020FEE703F0ADB80000014B1860BA
S214003BF0704700BF5C9900201FB5104B1B78012B47
S214003C0007D1FFF725F8B0B94FF0FF3005B05DF8E3
S214003C1004FB684600F06CF99DF800100029F3D10B
S214003C2001206A4600F0F0FD9DF80000003818BF3D
S214003C3001204042EAE76FF00500E7E7109E00200B
S214003C401FB5FFF705F848B9074B1B78012B02D0C4
S214003C50684600F051F84FF0FF3001E06FF00500C5
S214003C6005B05DF804FB00BF109E00207047000002
S214003C702DE9F041044608B9FFF7B4FFFEF7E8FF68
S214003C80194E1A4D074638B12023237040F22133CF
S214003C90C4E902356660FEE7154B1B78012B08D099
S214003CA002232370666040F22533C4E90235BDE87E
S214003CB0F081DFF8408098F80030F92B05D91E23F4
S214003CC02370666040F22A33EFE7FEF7B8FF98F8F5
S214003CD00030013388F80030FEF7B7FF27706660C3
S214003CE040F23533E1E700BF7CCD000094CE000003
S214003CF0109E0020119E002070B5044608B9FFF7FC
S214003D0071FF264B1E78012E09D013232370244BF7
S214003D10636040F2FE33A360224BE360FEE7224B73
S214003D201B88022B09D8092323701D4B636040F2C1
S214003D300943A3601B4BE360FEE71C4D2B784BB199
S214003D401F232370164B636040F20C43A360154B91
S214003D50E360FEE7FEF786FF48B11F232370104B93
S214003D60636040F20F43A3600E4BE360FEE701F092
S214003D701BFD0F4B0F4A18700F4B2E7018700C233C
S214003D8058430E4B1B5813600D4A136001F0BAFFE0
S214003D9002F0FEFFBDE87040FFF724BFF29A002055
S214003DA07CCD000069CE0000309F0020109E0020D1
S214003DB0079B0020249F0020069B0020109B0020CD
S214003DC0209F002008B501F0EFFCA0F14003584208
S214003DD0584108BD30B14368C1F8EC308368DB68F1
S214003DE0C361704791F83030022B03D0072B05D003
S214003DF0034B00E0034BC1F8EC307047024BFAE788
S214003E00E9DC000001CE000008CE0000044BC1F83B
S214003E10EC3018B1826802B1D368C361704700BF46
S214003E20E9DC00000023C0E9003303817047036823
S214003E3010B533B901220281C1E90933016041603E
S214003E401CE0028991F833400132028193F8332056
S214003E50A2420CD85B6A002BF8D14B6243688B6297
S214003E605962ECE7C1E909325162996206E09A6A42
S214003E70002AF7D1C1E909329962016010BDC36A10
S214003E805BB19A68526A4AB9C3E902221A8A013AB1
S214003E901A820023C0E90933C3627047D0E90921BA
S214003EA011B991629A60F1E74A620AB9D960EDE702
S214003EB09162EBE738B5C56AAB685B6A4BB1FFF752
S214003EC0DEFFC562014605F10800BDE83840FFF791
S214003ED0AEBF38BD054B40220021013AC3E90011B0
S214003EE0198103F10C03F8D1704700BF109B002026
S214003EF070B5044608B9FFF775FE994D6A68D2B1E9
S214003F002B68984E4BB92346296B97489200FFF7CB
S214003F1047FE306023780BB170BD3360934B326838
S214003F201A60934A6B6813609249934A9B00136029
S214003F300A6813440B602A89B2B12346296B8F485E
S214003F401201FFF72DFE8E4B18602378002BE3D16D
S214003F508C4B8D4A18602B89138086498B4A1B012F
S214003F6013600A6813440B606A69002A27D02B691D
S214003F70874E002B62D12346296B86489200FFF7B6
S214003F800FFE30602378002BC6D1834B2A7E1A7032
S214003F90824BEA691A60824B32681A606B69EA687B
S214003FA064215A43B2FBF1F27E490A607E4A7149A7
S214003FB013607E4A9B0013600A6813440B606A6AAB
S214003FC0002A28D02B6A7A4E002B39D12346296B3B
S214003FD078489200FFF7E4FD30602378002B9BD1F1
S214003FE0754B95F828201A70744B32681A606B6A05
S214003FF0EA6864215A43B2FBF1F271490A60714AD9
S214004000E96A1360704A9B001360704A1160594950
S2140040100A6813440B606E4E6B6B336002F06CFFE5
S21400402003F0A2FD054668B101232370694B636067
S2140040304FF4DA73A360684BE3606DE73360A4E780
S2140040403360CDE703F0AAFE3668644BB042024602
S214004050186009D2092323705E4B63604FF4DD734A
S214004060A3605D4BE360FEE700F0E2802B46002095
S214004070012105F02DFB7043594BB6F57A7F186089
S21400408008D9324600230020012105F021FB4FF419
S2140040907A754543534B544A1D6000231370534AA8
S2140040A01370534A1360534A1360534A1370534AAB
S2140040B01370534A2046137002F0E8FA0A23B0FB46
S2140040C0F3F0504B18602578002D7FF425AF284A72
S2140040D0136853B12549086838B10146013B41F8D9
S2140040E0045BFBD1116802F03BF8474B00251D70BE
S2140040F001F052FBFFF7EEFE444B1D60444B1D8063
S214004100214B1B88002B40F09580424A0023136009
S214004110414A1380414A1360414A1380414A136062
S214004120414A2046138001F097FF2378002B7FF446
S214004130F3AE204601F0B2FD2378002B7FF4ECAE00
S214004140204602F01DFD2378002B7FF4E5AE00F03C
S21400415011FCFFF78BFD354B01221A70DCE600BF21
S214004160781000206499002011CE00006899002085
S2140041706C990020609900207099002024CE0000E1
S21400418074990020789900207C990020809900205E
S2140041908C99002036CE0000849900208899002053
S2140041A09099002094990020989900209C990020CE
S2140041B0AC9900204FCE0000A4990020B0990020B2
S2140041C0B4990020B8990020BC990020A899002036
S2140041D0A09900207CCD0000A0CE0000E899002029
S2140041E0C4990020C0990020109E0020119E002037
S2140041F0209F0020249F0020069B0020079B002075
S214004200189E0020149E0020329F0020EC9A00206A
S214004210F09A0020009B0020049B0020089B0020B2
S2140042200C9B00201C9E0020209E0020F29A00205E
S214004230284621E7204600F0B3FF2378002B3FF402
S21400424064AF69E690F833300B490C22534330B51F
S214004250CA58CC1832B901252581C0E90422C850B5
S214004260606030BD258901352581002402614461E6
S2140042705061C850F5E700BF109B002090F833202F
S2140042800B490C235A4330B58C588B1834B901258A
S2140042901D81C0E904448850586030BD1A89013237
S2140042A01A81002202615A6842611061F4E700BF79
S2140042B0109B002010B5044690F8330001F084FAF5
S2140042C0084B94F833201B789A42204606D1FFF715
S2140042D0D5FF2046BDE8104004F0B5BCFFF7B2FF9E
S2140042E0F7E700BF069B002038B50C4691F8321061
S2140042F007290546049807D80239052906D8DFE8B5
S21400430001F0060605052525FF293AD138BDA26726
S214004310A4F87C30606415B12046FFF7B0FD214656
S2140043202846FFF773FD94F83230032B06D104F1CC
S214004330540003F053FC08B1FFF754FC2046FFF787
S214004340B9FF0023238684F83230DFE7A267A4F89B
S2140043507C30606415B12046FFF791FD2146284663
S214004360FFF754FD94F83230072B06D104F15400C1
S21400437003F034FC08B1FFF735FC00232386042342
S214004380E1E7BDE83840FFF72DBCD0E900329342A4
S21400439010B50FD01C690021A24215BF6161C3E9A8
S2140043A00412C3E90412C2E9043116BF13610260A5
S2140043B00460436010BD000070B50446D4E90435BF
S2140043C090F83300124A0C21BDB973B94143551811
S2140043D053502B816B6001F00DFA0023C4E90433BF
S2140043E02046BDE8704004F044BC484316183189A6
S2140043F0013931815D611350EFE701FB002211891D
S214004400013911812B610BB95560E6E75D61E4E780
S214004410109B002013B5044670B1084B1B78012B87
S2140044200AD10023CDE90033054A416F034605480B
S21400443003F032FC044B1C6002B010BD189E002036
S214004440E9460000CC990020C8990020F8B504463B
S214004450A8B1114B1B78012B11D1056F0F4E7DB9FA
S2140044600F4B1F6803F09AFC32682B46511E0D4610
S2140044701946E7FB0051284605F02AF96067F8BDA3
S21400448003F08CFC32680023511E0E461946E5FBED
S21400449000613046F0E700BF189E0020A09900207B
S2140044A0149E00202DE9F7435E4B1B78012B00D0AD
S2140044B0FEE75D4B93F80080B8F1000F40F0968061
S2140044C0FEF7BDFB594F5A4C97F80090594D0646DB
S2140044D001F06AF940280346387000F08A800C2004
S2140044E0DFF85C814343B9F1400F58F8033023608E
S2140044F003D101F0F9FCAFF3008022682B68DFF8E7
S21400450044919A4218D1002001F016FE012802D0EC
S214004510286802F00FFD99F800303BB12068436F21
S2140045200BB9FFF793FF2068FFF774FF304603B020
S214004530BDE8F043FEF789BB99F800301BB3DFF8FF
S2140045400891D9F800305B6FEBB13B4801A903F046
S214004550C7FB30B9D9F80030019A37485A6703F0DC
S2140045603DFBD9F800305A6F6AB993F8330000EB78
S214004570400008EB8000FFF708FF3B780C2253430F
S21400458058F8033023602268D2F8C0300133C2F8EE
S214004590C0302A4A1368013313603B78402B33D06F
S2140045A02B682268934215D0A3B102F0CBFB2B6890
S2140045B0D3F8C83098421FD302F0C4FB2B68D3F858
S2140045C0C830C01A2A68D2F8CC30C2F8C4001844E2
S2140045D0C2F8CC00246802F0B5FBC4F8C80002F0AC
S2140045E016FC3046FEF731FBBFF36F8F03B0BDE815
S2140045F0F083C4F80080CCE702F0A4FB2B68D3F865
S214004600C820D2431044DDE701F066FC2C681CB1DC
S21400461002F098FBC4F8C80004F0B4F9AFF30080C9
S214004620DDE700BF109E0020119E0020079B0020A3
S214004630249F0020209F0020CC990020289F002047
S214004640109B0020189E0020C89900202DE9F041FC
S214004650044608B9FFF7C6FAFEF7FAFA1E4F1F4ED1
S21400466038B12023237040F24D33C4E90236676028
S214004670FEE71B4B1B78012B08D0022323706760D4
S21400468040F25133C4E90236BDE8F081DFF85480C9
S21400469098F800302BB91F232370676040F256331A
S2140046A0F0E7FEF7CCFA98F80050013DEDB288F836
S2140046B000503DB1FEF7C9FA2D232370676040F223
S2140046C05E33DFE7FEF7C1FAFFF7ECFE25706760A2
S2140046D04FF45A73D6E700BF7CCD000086CE0000AC
S2140046E0109E0020119E002038B50E4B1B78012B23
S2140046F00D4616D1FEF7A3FA00236B670A4B1B681C
S21400470093F833300446094803EB430300EB830079
S214004710FFF73BFE2046FEF798FABDE83840FFF765
S214004720C1BE38BD189E0020C8990020109B0020EE
S214004730F8B50C46FEF783FA94F83230013B07468C
S214004740062B48D8DFE803F0544704475B470400CD
S21400475094F83030042B08BFE36A4FF0000608BF19
S2140047605D6AA667A4F87C6018BF354602F0EAFAD0
S21400477060642046FFF783FB94F83230032B31D178
S214004780FFF798FD84F832604FF44073238615B324
S21400479095F8333095F834209A421CD094F833209C
S2140047A09A4218D1284600F0E7FE95F83430834246
S2140047B028BF0346D9B295F833308B420BD0284633
S2140047C001F00CFE284603F009FE95F8332001465A
S2140047D02E2003F0B1FF3846FEF737FABDE8F84062
S2140047E0FFF760BE072B04BF042384F83230CBE704
S2140047F0002384F832302046FFF75CFDEBE7042305
S21400480084F83230E7E700002DE9F04105460E4611
S21400481014460AB9FFF7E6F9002323701E4B6360BF
S21400482040F28533A3601D4BE360FEF708FADFF81D
S21400483080800746E6B1C8F80060194B012D1A784B
S2140048401FD0012A0FD1174C174821680025743154
S2140048501D7003F045FA08B123685D67124803F03F
S214004860BDF9002323603846BDE8F041FEF7EDB9F8
S214004870204601F00BFF0A23B0FBF3F0C8F8000057
S214004880DBE7002AEFD1094C1D702068FFF7DEFD3C
S2140048902068FFF7BFFDE6E77CCD000071CE000084
S2140048A0189E0020C8990020CC990020209F002048
S2140048B0149E0020F7B504460D4611B303F06EFAB9
S2140048C0114B1A680026571E46F1FF31E5FB0071B2
S2140048D03346384604F0FCFECDE9006601460B4A36
S2140048E0234604F1540003F0D7F908B1FFF77AF92C
S2140048F00323204684F8323003B0BDE8F040FFF7CB
S2140049005BBD0223F5E700BFA099002031470000F9
S21400491037B5144D0B4611462A6882F8303000230E
S21400492082F83130104A127804463AB10F4A1048DD
S21400493012680191536703F051F901992868FFF74F
S214004940B9FF64B1296804F10800CC62FFF76FFA7A
S2140049502968204603B0BDE83040FFF73BBA2B6815
S214004960DC62F5E7209F0020189E0020C8990020F2
S214004970CC990020774B1B7882B0DBB28DF80530DF
S214004980754B1B68DBB28DF80730744B1B78DBB2B7
S2140049908DF80530724B1B78DBB28DF80530714B05
S2140049A01B68DBB28DF807306F4B1B6ADBB28DF8E5
S2140049B007306E4B1B78DBB28DF805306C4B1B78DE
S2140049C0DBB28DF805306B4B1B88DBB28DF80630FA
S2140049D0694B1B88DBB28DF80630684B1B78DBB260
S2140049E08DF80530664B1B88DBB28DF80630654BBC
S2140049F01B88DBB28DF80630634B1B88DBB28DF864
S214004A000630624B93F82830DBB28DF80730604BE7
S214004A101B78DBB28DF805305E4B1B88DBB28DF859
S214004A2006305D4B1B88DBB28DF806305B4B1B886F
S214004A30DBB28DF806305A4B1B88DBB28DF8063099
S214004A40584B1B88DBB28DF80630574B1B88DBB201
S214004A508DF80630554B5B8DDBB28DF80730544B26
S214004A601B78DBB28DF80530524B1B88DBB28DF815
S214004A700630514B1B78DBB28DF806304F4B1B6A65
S214004A80DBB28DF807304E4B1B78DBB28DF8053065
S214004A904C4B1B88DBB28DF806304B4B1B88DBB2C9
S214004AA08DF80630494B1B68DBB28DF80730484B53
S214004AB01B78DBB28DF80630464B1B78DBB28DF8E0
S214004AC00530454B1B78DBB28DF80530434B1B7821
S214004AD0DBB28DF80530424B1B78DBB28DF8053023
S214004AE0404B1B78DBB28DF805303F4B1B78DBB2B2
S214004AF08DF805303D4B1B88DBB28DF806303C4BFD
S214004B001B78DBB28DF805303A4B1B88DBB28DF88C
S214004B100630394B1B88DBB28DF80630374B1B78D6
S214004B20DBB28DF80530364B1B88DBB28DF80630CD
S214004B30344B9B8CDBB28DF80730334B1B88DBB2D3
S214004B408DF806309DF805309DF806309DF8073044
S214004B5002B07047B8100020B4100020B01000203B
S214004B60EC990020BC100020F0990020C010002016
S214004B70189A0020C2100020C4100020C610002082
S214004B80CC100020C8100020CA1000201C9A00205C
S214004B90CE100020D0100020D2100020D41000200C
S214004BA0D6100020D8100020DA1000204C9A0020E2
S214004BB0DC100020DE100020E81000207C9A002088
S214004BC0E9100020EA100020E0100020E410002089
S214004BD0EE100020EC100020ED100020F210002057
S214004BE0F3100020F5100020F4100020F61000202E
S214004BF0F8100020F0100020FA100020FC10002012
S214004C00FE100020A49A00200011002010B4074CCB
S214004C102468A4F8AC200022C4F8A410C4F8A82085
S214004C2001215DF8044B1A46FFF772BE209F002054
S214004C302DE9F04F2DED028B83B0DDE90E6408EE12
S214004C40102A05468A4698460CB9FEF7CBFF0FFA9F
S214004C5088F3002B0093C0F25081FDF7F9FF00287F
S214004C6000F04681202323709C4B636040F235138E
S214004C70A3609B4BE360FEE71F232370974B6360A4
S214004C8040F23913A360964BE360FEE702232370DD
S214004C90924B63604FF49F73A360914BE3604FF0B9
S214004CA0000B57E047F6FF6308EA0303581E012887
S214004CB00DD9042B0BD0082B09D008232370874B63
S214004CC063604FF4A373A360854BE360FEE7286838
S214004CD0844B984209D00C232370804B63604FF4BA
S214004CE0AC73A3607E4BE360FEE708F48073019329
S214004CF00EB100233360FDF7A2FF08F00F09B9F1EB
S214004D00040F074607D0B9F1080F42D0FDF79DFF04
S214004D10FEF768FF7AE02A6A3AEA020302EA0A0B1A
S214004D201ED1019B13B122EA0B022A626E4A126858
S214004D300AB1C2F8A8B00EB16A6A32603846FDF70A
S214004D4084FF00222270654A62604FF4BB72A26044
S214004D50634AE260584603B0BDEC028BBDE8F08FB4
S214004D60009B002B08DAFDF770FF1D2323705B4BBA
S214004D70636040F27D138FE75C4B1B78002B3BD0C3
S214004D80FDF763FF2D232370544B63604FF4C2730B
S214004D9082E72A6A12EA0A0B16D0019B13B122EAAE
S214004DA00B022A62504A12680AB1C2F8A8B00EB1C5
S214004DB06A6A32603846FDF748FF00222270474A8A
S214004DC062604FF4D172C2E7009B002B08DAFDF751
S214004DD03CFF1D222270414A626040F2A912B6E7EB
S214004DE0424B1B7843B1FDF730FF2D2222703B4A21
S214004DF062604FF4D872AAE7284618EE103A424688
S214004E005146FFF703FF3846FDF71FFF364FFFF703
S214004E1049FBFDF714FF3B6893F83120032A4BD873
S214004E20DFE802F002263E320EB15B6C33600023F0
S214004E3023702A4B636040F22D23A360284BE36067
S214004E403B68D3F8A8B0019B4BB1B9F1040F02D070
S214004E50B9F1080F3AD12A6A22EA0B022A62FDF754
S214004E60F4FE002222701D4A626040F26F226EE756
S214004E700EB15B6C3360FDF7E8FE21232370174B01
S214004E8063604FF40E7307E70EB100233360FDF73F
S214004E90DCFE22232370114B636040F24123FBE6C5
S214004EA00EB15B6C3360FDF7D0FE312323700B4BE5
S214004EB063604FF41373EFE60090FDF7C6FEFEF74F
S214004EC091FE23780098002BBAD0E8E60090FDF714
S214004ED0BCFEFEF787FE0098C1E700BFA7CE000025
S214004EE037CF0000464C4147209F0020119E0020EF
S214004EF0FDF7B8FE00287FF4BFAE094B1B78012BE8
S214004F007FF4C4AE002D7FF4CDAE0A232370054B8C
S214004F10636040F24313A360034BE360FEE700BF09
S214004F20109E0020A7CE000037CF0000054B064A93
S214004F30C36100234361136883610BB91060704737
S214004F405861FBE7E9DC0000EC9A00202DE9F84FF9
S214004F5005460F4693461C460BB9FEF743FEFDF783
S214004F6077FEDFF88490DFF88480064638B1202389
S214004F7023705523C4E90238C4F80490FEE73DB90F
S214004F800A2323705823C4E90238C4F80490FEE7C5
S214004F90FDF755FE282231468246284604F068FD75
S214004FA00F4BC5F820B0C5E9003705F10800FEF73D
S214004FB039FF2846FFF7BAFF0A4A138801331380E1
S214004FC029463A46372003F0C3FE5046FDF73DFE1D
S214004FD070232670C4E90238C4F80490BDE8F88F40
S214004FE0464C4147F09A0020A7CE000042CF000072
S214004FF010B50023038690F83230C0F8A810044697
S2140050004264072B1AD8DFE803F0121204041212C7
S2140050101717032B05D1543002F0E0FD08B1FEF758
S214005020E1FD2046FFF746F9002384F8323020469B
S214005030BDE81040FEF723BF0423F6E7FEF7D2FDD7
S214005040F5E700002DE9F84305460F4616461C46D0
S2140050500BB9FEF7C7FD4E4B1B78012B0CD0022375
S21400506023704C4B636040F23233A3604A4BE360DC
S21400507000252846BDE8F8834DB90A232370454B22
S214005080636040F23733A360434BE360FEE747F6C6
S214005090FE731E4209D0082323703E4B636040F225
S2140050A03A33A3603C4BE360FEE72A683B4B9A42E8
S2140050B009D00C232370374B63604FF45073A36002
S2140050C0354BE360FEE701F03DFE8146FDF7B7FD98
S2140050D0B6F5004F80460BD048F201039E421BD027
S2140050E036B1012E18D0FDF7B0FDFEF77BFD02E0CD
S2140050F0296A39432962AF68C5F8249087B94046C3
S214005100FDF7A3FD234B636040F262332770A36074
S214005110214B2D6AE360ACE7296A21EA0701E9E73B
S21400512038467F6AB0F8AC3003F00F03042B07D084
S214005130082B0FD04046FDF788FDFEF753FD0EE026
S214005140D0F8A4102B6A31EA030308D14A46FFF7C9
S2140051504FFF04E0296AD0F8A4301940F6D1002F9A
S214005160DED14046FDF771FD330401D4FFF79AF90E
S214005170FDF765FD2D6AFDF768FD00232370054BDE
S214005180636040F2A333A360034BE36071E700BFA4
S214005190109E0020A7CE00002CCF0000464C4147B2
S2140051A0154BF0B51C68154B1E880025721E04F1C1
S2140051B0100192B22B46AFB2BA4213D8110104EBDB
S2140051C00212635053601381D3600D4A1381D3805B
S2140051D09680146003700B4B43605D2383600A4B1C
S2140051E0C360F0BD41E9041321F8083C41F8043CD3
S2140051F001351031DFE700BF789900207C99002048
S214005200F49A00204FCF0000D3CF0000428910B59B
S21400521082B1094B01681C680C6041681960D98826
S214005220891AD9809988114499800023C0E90033EF
S21400523043818381104610BDF49A002038B5044699
S2140052400D461022002104F013FC258138BD000015
S2140052502DE9F74F0C9C06468A4617461D460CB9A4
S214005260FEF7C0FCFDF7F4FC48B120232370864B04
S214005270636040F23313A360844BE360FEE74EB9ED
S2140052800A232370804B63604FF49B73A3607F4BAD
S214005290E360FEE7C7F30E034BB1082323707A4B97
S2140052A0636040F23913A360784BE360FEE7326830
S2140052B0774B9A4209D00C232370734B636040F2FD
S2140052C03D13A360714BE360FEE73FB2002F0CDB9B
S2140052D0FDF7C8FC48B11F2323706B4B63604FF487
S2140052E0A073A360694BE360FEE76A4B93F80090F7
S2140052F0B9F1010F1CD1FDF7A2FC96F82830DFF8B3
S2140053009CB18046F3B9DBF80030736286F82890CB
S2140053100DB1F26A2A609A6B326240469E63FDF7D0
S21400532094FC00232370584B63604FF4AA7305E087
S21400533002232370544B636040F24513A360534B23
S214005340E36014E0D6F82490DBF80020914521D1E4
S214005350FF2BDFF834914D4F0CD1FDF776FC1E2362
S2140053602370C4F8049040F25D13C4E9023703B01A
S214005370BDE8F08F013386F828300DB1F36A2B6054
S2140053804046FDF762FC23232370C4F8049040F2E5
S2140053906913EAE7002F0BDAFDF757FC0DB100237F
S2140053A02B601D232370384B63604FF4BB73C5E737
S2140053B0394B1B785BB1FDF748FC0DB100232B6021
S2140053C02D232370304B63604FF4C173B6E792F819
S2140053D0331099F833308B420BD9484600F0FEFF65
S2140053E0484602F0FBFF99F8332001462D2003F0D3
S2140053F0A3F9524604213046FFF78AFA4046FDF7E5
S21400540024FCFFF74FF8FDF71AFCDBF8003093F8A2
S2140054103120032A32D8DFE802F00213271D0DB12F
S2140054205B6C2B6000232370174B63604FF4D073C4
S214005430A360164BE36003B0BDE8F04FFDF705BC74
S2140054400DB15B6C2B60212323700F4B63604FF410
S214005450D573EDE70DB100232B60222323700A4B92
S21400546063604FF4DA73E3E70DB15B6C2B603123B6
S2140054702370054B63604FF4DF73D9E70190FEF7A6
S214005480B1FB0198D7E700BFE2CF000074D0000060
S2140054904D555458109E0020119E0020209F00203D
S2140054A0054B064AC36100234361136883610BB949
S2140054B0106070475861FBE7E9DC0000009B0020A5
S2140054C02DE9F04705460F4614460AB9FEF78AFB53
S2140054D0FDF7BEFBDFF88090DFF88080064638B127
S2140054E0202323705223C4E90238C4F80490FEE750
S2140054F03DB90A2323705523C4E90238C4F8049042
S214005500FEE7FDF79CFB302231468246284604F033
S214005510AFFA0F4B05F10800C5E90037FEF782FC2D
S2140055202846FFF7BDFF0B4A138801331380294630
S2140055303A46292003F00CFC5046FDF786FB6C2308
S2140055402670C4E90238C4F80490BDE8F08700BFAE
S2140055504D555458049B0020E2CF000080D0000038
S214005560836B00F138028B42186A01D110607047D5
S21400557003F120020346F6E7836B3F2003B970472A
S2140055809A6822B192F83320904228BF10461B6AD0
S214005590F4E700002DE9F04F054685B08B4614462B
S2140055A00AB9FEF71FFBFDF753FBDFF89481604F47
S2140055B040B12023237040F25723C4E90237C4F8D1
S2140055C00480FEE745B90A23237040F25A23C4E953
S2140055D00237C4F80480FEE7CBF30E0343B108237A
S2140055E0237040F25D23C4E90237C4F80480FEE766
S2140055F02A68504B9A4208D00C23237040F261234D
S214005600C4E90237C4F80480FEE74B4B1B78012B35
S2140056100AD002232370C4F8048040F26523C4E94C
S214005620023705B0BDE8F08FDFF818A1FDF707FBDD
S2140056306A6ADAF800309A42814608D0FDF705FB20
S2140056401B232370C4F804804FF41B73E7E701F0B4
S21400565079FB95F828300290013BDBB2E86285F8CA
S21400566028304BB14846FDF7F0FA23232370C4F8E0
S214005670048040F27D23D2E7DAF800002946FFF7DF
S2140056806FFFAE685EB96E6285F828604846FDF723
S214005690DCFA2670C4F8048040F28A23BFE7DAF802
S2140056A0001091F8333091F834600393B34220D061
S2140056B00846FFF761FFB04228BF3046039BC6B2DC
S2140056C0B34216D20846FEF777FEDAF8000080F8F6
S2140056D0336002F083FE324601462E2003F02CF89B
S2140056E0304600F071F8DAF80000FEF7C7FD134BFD
S2140056F01E70A9686962012385F828308B6B2B62BF
S214005700029B8D63009300231A462846FEF7ECFDA5
S2140057104846FDF79AFA1BF4004F01D1FEF7C2FE89
S21400572000232370C4F8048040F2AD2377E700BF5F
S21400573068D000004D555458109E0020069B00204F
S214005740E2CF0000209F00202DE9F341846B054640
S214005750012714B902B0BDE8F081D4F8208001F02A
S214005760F1FA2146E06206462846FFF7F9FEA168F0
S21400577021B984F8281061624446EAE784F8287064
S2140057808B6B2362002365621A468C632046009664
S214005790FEF7AAFDF0E70000024B0022C3E9002254
S2140057A0704700BFD49A002008B5064B186828B981
S2140057B0586801F0E1FA2030C0B208BD01F0DCFA0A
S2140057C0FAE700BFD49A00201F28094A07D84FF0EE
S2140057D0004323FA00F01368034313607047012365
S2140057E0C0F13F0003FA00F053681843506070475A
S2140057F0D49A00201F280A4B08D84FF0004222FAFD
S21400580000F01A6822EA00021A6070470122C0F10E
S2140058103F0002FA00F05A6822EA00025A60704717
S214005820D49A00202DE9F3470A9C07468946164677
S2140058301D460CB9FEF7D6F90FFA86FABAF1000F34
S2140058400ADABFB90A2323706A4B63604FF4937376
S214005850A360694BE360FEE7FDF7FAF90028F0D095
S21400586020232370634B63604FF49173A360624BF5
S214005870E360FEE7C6F30E064EB1082323705D4BC9
S214005880636040F22913A3605B4BE360FEE73A686F
S2140058905A4B9A4209D00C232370564B636040F251
S2140058A02D13A360544BE360FEE7BAF1000F0CDB48
S2140058B0FDF7D8F948B11F2323704E4B63604FF4B1
S2140058C09873A3604C4BE360FEE74D4B1B78012BAF
