S019000046696E616C5F50726F6A6563745F52544F532E73333714
S21400000000100020511C00004D1C00004D1C00007C
S2140000104D1C00004D1C00004D1C00004D1C000037
S2140000204D1C00004D1C00004D1C00004D1C000027
S2140000304D1C00004D1C0000436F00004D1C0000CE
S2140000404D1C00004D1C00004D1C00004D1C000007
S2140000504D1C00004D1C00004D1C00004D1C0000F7
S2140000604D1C00004D1C0000A11200004D1C00009D
S2140000704D1C00004D1C00004D1C00004D1C0000D7
S2140000804D1C00004D1C0000E51200004D1C000039
S2140000904D1C00004D1C00004D1C00004D1C0000B7
S2140000A04D1C00004D1C00004D1C00004D1C0000A7
S2140000B04D1C00004D1C0000558100004D1C00002A
S2140000C04D1C00004D1C00004D1C00004D1C000087
S2140000D04D1C00004D1C00004D1C00004D1C000077
S2140000E04D1C00004D1C00004D1C00004D1C000067
S2140000F04D1C00004D1C00004D1C00004D1C000057
S2140001004D1C00004D1C00004D1C000010B5054C99
S214000110237833B9044B13B10448AFF300800123AE
S214000120237010BDA81C00200000000070E0000036
S21400013008B5034B1BB103490348AFF3008008BD65
S21400014000000000AC1C002070E00000A3F5803A20
S214000150704700BF174B002B08BF134B9D46FFF799
S214000160F5FF00218B460F461348144A121A09F071
S2140001700FFD0E4B002B00D098470D4B002B00D0E8
S21400018098470020002104000D000D48002802D0EA
S2140001900C48AFF3008009F0C1FC2000290001F0F4
S2140001A079FB09F0A7FC00BF000008000000000073
S2140001B0000000000010002070110020F0BE00209B
S2140001C00000000000000000034A136923F0040347
S2140001D0136130BFF9E700BF00ED00E0BFB53F4850
S2140001E0DFF814A1DFF8148102A906F037FC4FF0FF
S2140001F0000902AB009300231A466421504605F01E
S214000200A1FB01F0F5F8002001F0DEF8344C354E85
S2140002102070012001F0D8F83070022001F0D4F8E8
S214000220314D324F2870032001F0CEF802AB009318
S21400023000231A4638701946404605F099F8227889
S2140002402B4BA2B1327892B92A7882B93A7872B931
S2140002501A68012A05D001221A60264B6FF0630245
S2140002601A6002AA0021404605F024FAC1E7327857
S21400027072B12A7862B93A7852B9227842B91A68C5
S214000280022AEED002221A601A4B6FF03102E7E71C
S2140002902A786AB132785AB93A784AB922783AB99D
S2140002A01A68032ADDD003221A60124B3222D7E7DF
S2140002B03A786AB132785AB92A784AB922783AB97D
S2140002C01A68042ACDD004221A600A4B6422C7E7B3
S2140002D0C3F80090074BC3F80090C2E7BC73002039
S2140002E0FC740020FD740020FE740020FF740020C3
S2140002F0F874002090740020A4620020146200208D
S2140003002DE9F04F2DED048B91B0C348DFF898939C
S2140003100CA906F0A3FB0CAC00231A460A21BF4822
S214000320009405F00FFB00231A461946BC480094BB
S21400033005F01EF800231A461946BA48009405F040
S21400034017F8B948214606F089FBB84A13680393A4
S21400035001330BD1D9F85030D9F840108B42A9BFE1
S2140003605B1A0023C9F8503001231360D9F8300017
S214000370DFF8DC8208F010FFAD4B04460D46186827
S21400038008F00AFF22462B4609F09AF8A94BC3E963
S2140003900001D9F8040008F0FFFEA74B002209F080
S2140003A08FF8A64BC3E90001A54BD3E9006741ECE3
S2140003B0180BA44B00223046394608F09FFD002259
S2140003C0002309F0C5F9D8E900AB0022002800F0A8
S2140003D012829D4B9A49D9F82C00C1E9002308F0F7
S2140003E0DBFE524606460F465B465046594608F028
S2140003F087FD22462B4608F039FF53EC182B09F0F0
S2140004005FF802460B463046394609F0A1F948B176
S2140004104FF47A73D9F8380090FBF3F008F0BCFE7E
S214000420C8E900019FED787B884B83ED007B884B05
S2140004301A6804925A6802F1004205929DED047B08
S21400044083ED007B834C844D2378002B00F0E48200
S214000450D5E900AB814B824E00225046594609F042
S21400046095F9002800F0E5819FED678B4FF00003BB
S21400047023707C4B0022C6E9002385ED008B09F033
S2140004809DFC794B1A68794B1B689B1A013390FBCD
S214000490F3F101FB1300104408F07EFE744BC3E931
S2140004A00001744B83ED008BDFF8F4A1724BDAE9A0
S2140004B00045D3F8008000224FF0804320462946AE
S2140004C009F064F9002800F0C8825E4B002220463E
S2140004D0294609F03DF9002800F0BF82DFF8C4B1D4
S2140004E0664BDBE9006700223046394609F04EF9D4
S2140004F0002800F0B282624B00223046394609F0EE
S21400050027F9002800F0A9825E4B1A78002A00F02E
S214000510A4824FF000021A705B4B00229FED3A7BDC
S214000520CAE90023CBE90023584B594A83ED007BE8
S214000530584B83ED007B136801331360B8F1000F4E
S214000540D9F8504040F3F782DFF860A19AF80030FF
S21400055003F0FF020392002B40F0ED82D9F854001E
S214000560DFF84CB108F018FE064640460F4608F085
S21400057013FE494B002208F0A3FF02460B46304606
S214000580394608F073FE06460F462046CBE900675C
S21400059008F002FE0446D9F848000D4608F0FCFDB7
S2140005A0324641EC190B3B462046294608F0A6FC8D
S2140005B00022002309F0EAF89FED158B80460028FC
S2140005C000F0698232463B463046394608F098FCD1
S2140005D053EC192B08F074FF0AF080FE2F4C194BD1
S2140005E0C4E9000116490022D1E9000108F086FCA2
S2140005F02B4BC3E900012B4BD9F8440083ED008B4D
S21400060008F0CAFD56E000BF000000000000000031
S2140006100000000000805D40E4610020BC61002016
S214000620241D002014620020F41C0020F07400201A
S214000630907400208074002000408F4000750020D9
S214000640081000200000204000002240787400209F
S2140006508874002028100020E0740020000060400D
S2140006601810002000003440041000202C10002039
S214000670D8740020E8740020D074002000000840E1
S21400068000003240F574002000406040B074002046
S214000690EC730020C874002000004940A0740020BD
S2140006A0A8740020B8740020F0730020F4740020B2
S2140006B098740020B2A3D3E9002308F0D7FD0AF00F
S2140006C073FD02460B46D4E9000108F0CFFDB24B9D
S2140006D0C3E90001D9F8440008F05EFDA8A3D3E9F9
S2140006E0002308F0C3FD0AF0AFFD01F100430793B5
S2140006F00690D4E90023DDE9060108F0B7FDA74B14
S214000700C3E90001A64BC3E90001039B8AF8003049
S214000710A44BA54ED3E900459F4B2046D3E90023C2
S214000720294608F0A3FDD6E9002308F0E9FB9F4B15
S214000730C6E900019A4ED3E900232046294608F070
S21400074095FDD6E9002308F0DBFB02460B46C6E91A
S21400075000232046294608F089FD954E02460B46A2
S214000760D6E9000108F0CCFBC6E90001D9F8300054
S21400077008F012FD0B468F490246D1E9000108F049
S2140007809FFE8D4B0646D3E900230F46204629469A
S21400079008F06CFD02463046884E0B46394608F097
S2140007A0AFFBD6E9002308F0ABFB02460B46C6E9D2
S2140007B000232046294608F059FD814E02460B4686
S2140007C0D6E9000108F09CFBD9F850304CF24F32C5
S2140007D09342C6E90001D8BF0A330CAA7948D8BFAD
S2140007E0C9F85030002104F065FF77480CAA0021B4
S2140007F004F060FF8FE5754B3046394608F080FB05
S214000800734B002208F0C2FF00283FF41BAE5EA325
S214000810D3E900236A49C8F800A09FED5D7BC1E9D3
S2140008200023644B83ED007B0BF10043C8F80430D3
S21400083008E696ED007B002251EC170BB0EE479AC7
S214000840F0EE679A002308F083FFDFF8A881002205
S214000850D8E90045002800F0D3805E4BC8F8004079
S214000860C6E9002305F10043C8F80430544BD3E929
S2140008700045594BD3E900670022544B20462946D1
S21400088008F03CFB32463B4608F062FF00284BD09F
S2140008904E4B00222046294608F032FB04460D4601
S2140008A002460B463046394608F052FF002800F054
S2140008B07E814A4B00225046594608F067FF68B1D1
S2140008C0434B00225046594608F042FF30B1444B95
S2140008D04FF000021A70434B00221A60424BD9F8C0
S2140008E03C0090FBF3F0803008F056FC02460B46C6
S2140008F05046594608F04AFFB0B1354B00225046E4
S214000900594608F025FF78B1039B6BB1344B374945
S2140009104FF000021A70304B9FED1D7B0020C3E99C
S2140009200001334B83ED007B324B2B4CD3E9002385
S21400093051EC180B08F09AFCD4E9002308F0E0FA12
S2140009402D4BC4E900012D4CD3E9002351EC180BC4
S21400095008F08CFCD4E9002308F0D2FA02460B46D5
S214000960C4E9002351EC180B08F080FC204C02462A
S2140009700B46D4E9000108F0C3FAC4E9000193E588
S214000980C37A4D56DF55AD3F0000000000C05D4005
S2140009900000000000000000B0740020C0740020BA
S2140009A0C874002000750020A874002010100020D5
S2140009B0B8740020787400208074002088740020AA
S2140009C008100020241D0020146200200000204093
S2140009D0000060400000F03F1810002000805F40DC
S2140009E0281000200010002018FCFFFF00003440F4
S2140009F0E0740020D874002020100020E874002046
S214000A00774B51EC190B08F0C1FE00283FF42EAFCF
S214000A106DA3D3E9002321E79FED6D8B714B7249DF
S214000A200020C3E9000185ED008B09F0C7F96F4B84
S214000A301A686F4B1B689B1A013390FBF3F101FB9E
S214000A401300104408F0A8FB6A4BC3E900016A4B88
S214000A5083ED008B0123237026E500220023204629
S214000A60294608F075FE70B95D4B002220462946DF
S214000A7008F08CFE38B96149594BD1E900010022D3
S214000A8008F084FE20B15E4B4FF000021A7055E568
S214000A905B4B0122FAE72246CBE900452B4620466F
S214000AA0294608F02DFA53EC192B08F009FD0AF038
S214000AB015FC544C544BC4E9000154490022D1E9BA
S214000AC0000108F01BFA524BC3E900014B4BD9F862
S214000AD0440083ED008B08F05FFB3FA3D3E90023BF
S214000AE008F0C4FB0AF060FB02460B46D4E900019E
S214000AF008F0BCFB474BC3E90001D9F8440008F0F6
S214000B004BFB35A3D3E9002308F0B0FB0AF09CFBAF
S214000B1001F1004309930890D4E90023DDE90801B8
S214000B2008F0A4FB3C4B8AF80080C3E900013B4B6D
S214000B30C3E90001ECE5002C03DC0023C9F85030C3
S214000B40E6E5344B2046364CD3E9006708F024FB34
S214000B50D4E9002308F0D2F908F022FE284BC9F8A1
S214000B6050009FED1B7B1B7884ED007B03F0FF029B
S214000B702C4CABB1D9F8480008F00EFB07F1004347
S214000B800A960B93DDE90A2308F070FB264B002239
S214000B9008F096FC254B0122C4E900011A70B7E55F
S214000BA09FED0B7B214B84ED007B1A70B0E522464F
S214000BB02B463046394608F0CBFD00283FF4B4AE4D
S214000BC08CE600BFAFF300800000000000C05F406E
S214000BD00000000000000000C37A4D56DF55AD3F10
S214000BE00000604018100020000034400410002070
S214000BF02C100020D8740020E8740020B874002060
S214000C00F5740020A074002000002040081000208A
S214000C10A8740020B0740020C0740020C87400209F
S214000C20987400207874002000804140F4740020FE
S214000C301FB500216A46034804F078FF05B05DF84A
S214000C4004FB00BFBC6100201FB500216A460348B4
S214000C5004F06CFF05B05DF804FB00BF541D0020D7
S214000C601FB500216A46034804F060FF05B05DF832
S214000C7004FB00BFA462002010B50C4B0C480D49C5
S214000C8088B02022C3F808210B4B0193002204AC45
S214000C900123029200930394022305F07BFF214672
S214000CA0034805F0DBFE08B010BD00BF00A0004002
S214000CB0C41C002024C70000CD0C0000024B2022DC
S214000CC0C3F8FC20704700BF00A00044FFF7F6BF43
S214000CD02DE9F04F8FB05748574E584C06A905F0EF
S214000CE0BDFE06AB009300231A460A215448DFF8DF
S214000CF09481544DDFF890A1534F04F023FE06ABC9
S214000D00009300231A4619463046D8F800B004F07F
S214000D102FFB204606F052FB2A6D4C490AA809F024
S214000D209BF84B49204606F03DFE4FF0FF39052361
S214000D300122CDE901320AA900220223CDF8009053
S214000D40204606F03CFEDAE9000108F029FD0146DF
S214000D50204600F00DFC3F4BD3E9000108F020FDD3
S214000D603D4B0590D3E9000108F01AFD6B6A059A21
S214000D700146204600F032FC3968204600F04CFC64
S214000D80204600F0ABFCBBF1010F09D1DAE9000107
S214000D9008F006FD0146204600F0BCFCC8F80090AE
S214000DA02E4B1B7883B12E4BD3E9000108F0F8FCDC
S214000DB02C4B0590D3E9000108F0F2FCEB6C059A89
S214000DC00146204600F022FCAA693B689A4224DCD1
S214000DD000220123CDE901232349022200920622A4
S214000DE0204606F0ECFDFFF769FF204B2048202246
S214000DF0C3F8FC2006A905F0FDFB1E4806A905F071
S214000E00F9FB1D4806A905F0F5FB06AA00213046A9
S214000E1004F050FC06F088FA63E7184B1A68002ABC
S214000E20F3D10123CDE901230222009214490622C0
S214000E30D6E700BF7C1D0020241D0020487400203B
S214000E40541D0020F0730020EC73002039C700000A
S214000E501CD50000E074002018100020F474002058
S214000E60B8740020A87400203CC7000000A000460C
S214000E70EC3E0020CC600020CC7200200010002049
S214000E8045C70000F0740020081000202DE9F04748
S214000E9086B03348334FDFF8EC8002A905F0DEFD5C
S214000EA04FF000094D464C464E4602ABCDE9006376
S214000EB064224FF484730621384603F049FF02ABE0
S214000EC00093002382461A461946404604F050FA1C
S214000ED01AF0020F03D002A805F074FD04461AF0BB
S214000EE0040F03D002A805F06DFD0546AC421E4A6D
S214000EF02AD21E4864212B1B00684B43B3FBF0F339
S214000F00B3FBF1F311681A4899440B44322BC8BF5F
S214000F103223B9F1320F136028BF4FF0320901F0C7
S214000F2033FB144A00FB09F00121B0FBF2F2124831
S214000F3002F098FC114B12482022C3F80821002129
S214000F4002AA04F0B7FBB0E70948166001F01CFBE4
S214000F5009480022012102F085FC4FF00009E9E76C
S214000F60F41C0020D41D0020D0740020A899002076
S214000F7080061600A08601000060044000A0004025
S214000F8014620020446200201FB51E4800F0BCFA20
S214000F90684605F017FD08F0E3FE6B461A491B4845
S214000FA0002204F063FE6B4619491A48002204F03A
S214000FB05DFE6B4618491948002204F057FE6A4643
S214000FC01749184804F00CFB6A461749174804F0FE
S214000FD007FB6A461649174804F002FB6A4616499C
S214000FE0164804F0FDFA6B4615491648002204F030
S214000FF03DF8154915486B46002204F037F805B051
S2140010005DF804FBF073002050C70000BC610020B0
S21400101062C70000A462002073C70000541D0020B1
S21400102081C70000241D00209AC70000146200201B
S214001030A9C7000044620020B7C700007462002001
S214001040C4C70000AC1D0020D9C70000D41D002076
S2140010502DE9F04FDFF8CC80DFF8CCB0294AD8F87D
S21400106004302949DFF8C490DFF8C4A089B004AC86
S214001070002502260A27019258462A4693FBF7F3D4
S21400108003940295009605F085FD204B2049CDE996
S21400109000632A4633464846CDE9025405F07AFDF9
S2140010A01C4AD8F808301C4993FBF7F3CDE90062D8
S2140010B050462A46CDE9025405F06CFDD8F80C30AF
S2140010C0164ADFF8708093FBF7F3CDE900624046DE
S2140010D02A46CDE90254124905F05CFD21465846E1
S2140010E005F0BCFC2146504605F0B8FC21464046BB
S2140010F005F0B4FC2146484605F0B0FC09B0BDE852
S214001100F08F00BF310C0000EEC70000790C000025
S214001110FEC70000490C000012C80000610C000069
S2140011201CC80000F0730020E4610020F41C0020BE
S2140011307C1D0020BC73002000B58FB00AAB08935E
S21400114002220023CDE906324FF480616622CDE903
S2140011500221074A019205220092CDE90433054A8E
S2140011600549064805F096F80FB05DF804FB00BF89
S214001170CC5000200103000029C80000CC600020ED
S21400118000B58FB00AAB089302220023CDE90632E1
S2140011904FF480616622CDE90221074A01920A22B5
S2140011A00092CDE90433054A0549064805F072F871
S2140011B00FB05DF804FB00BFCC620020DD0100002C
S2140011C037C80000CC72002000B58FB00AAB089379
S2140011D002220023CDE906324FF480616622CDE973
S2140011E00221074A019232220092CDE90433054AD1
S2140011F00549064805F04EF80FB05DF804FB00BF41
S214001200CC400020C90100003EC80000DC3F0020A2
S21400121000B58FB00AAB089302220023CDE9063250
S2140012204FF480616622CDE90221074A01920F221F
S2140012300092CDE90433054A0549064805F02AF828
S2140012400FB05DF804FB00BFFC1D0020D10C0000B1
S21400125048C80000FC2D002000B58FB00AAB0893EC
S21400126002220023CDE906324FF480616622CDE9E2
S2140012700221074A01921E220092CDE90433054A54
S2140012800549064805F006F80FB05DF804FB00BFF8
S214001290EC2E00208D0E000053C80000EC3E00200F
S2140012A01FB50D4BD3F82824D3F81C140A40520659
S2140012B00CD54022C3F82424084BD3F898216B465B
S2140012C03AB100220221064803F04CFF05B05DF853
S2140012D004FB0421F7E700BF00A0004000201442F2
S2140012E0D41D0020074BD3F82824D3F81C140A403A
S2140012F0120606D58022C3F82424034B4FF0FF3293
S2140013001A60704700A00040F07400207FB500F01F
S21400131027FA00F0B9F800F045FB20B1254840F266
S214001320973100F003FF002005F0D4FF20B12148DC
S21400133040F29B3100F0FAFE1F4806F093F820B109
S2140013401C4840F29F3100F0F1FE1B4C00236FF06A
S2140013507F422046C4E9013206F030F8174920469D
S21400136006F020FB0525012600231A46CDE9015686
S21400137013490095204606F022FB124900950023EB
S2140013800222CDE90156204606F019FB05F0CCFFF7
S214001390FFF7FAFDFFF75CFEFFF7CEFEFFF738FF1C
S2140013A0FFF75AFFFFF7ECFE04B0BDE87040FFF70A
S2140013B00BBF00BF5DC80000487400204CD800007A
S2140013C066C800007CC80000074A084952F820306A
S2140013D052F8202051F82000A3EB920398422CBF2D
S2140013E000200120704700BF0875002018750020F7
S2140013F0F0B54FF080401E4C1E4F1F4E85B000F0DB
S2140014007FFE002323702378032B06D94FF08040FD
S21400141005B0BDE8F04000F05DBE2378174DF95CDE
S2140014204FF0804000F03CFE0021012369626A46CE
S21400143031700A206B6005F0CBF902236B606A6A94
S21400144023780F49DBB241F8232023780D49DBB21D
S21400145051F823309A4282BF2378DBB241F823202A
S2140014600123337023780133DBB22370CBE700BF50
S21400147028750020ACC800002975002000840140B3
S214001480187500200875002030B5164D0FCD87B0B2
S2140014906C460FC495E8030084E803001248012157
S2140014A000F0E4FE1148012100F0E0FE10480121A2
S2140014B000F0DCFE01214FF48A4000F0D7FE0D4B11
S2140014C00D4A1A604FF6FF72DA610C4A1A670C4B27
S2140014D00C4A1A6569464FF0804000F099FD07B047
S2140014E030BD00BF94C80000404105000012040053
S2140014F000A20400008401400000010A0100002A46
S21400150000600E400003100001213223642230B533
S214001510C0E90013154D8162962442F6E061C0E9E9
S2140015200242C0E90B1241F2883442F21072C0E95E
S2140015300454C0E90D22022547F2305243F69821A2
S214001540C0E90654C0E90F120A244FF0000C4FF40D
S2140015504872C0E908C4C0E9112305244CF2503390
S214001560C0E9134344F62063436530BDA0860100FE
S21400157070B590B0A1F10803009301F108030C4682
S2140015807E2602936946802305460393019606F05D
S214001590F2F8A31E04937C23059304A9631E284631
S2140015A0CDE9063606F0E7F8231F0893782309935B
S2140015B0E31E0A9308A97B2328460B9306F0DBF864
S2140015C0A31F0C9376230D93053C77230CA928467E
S2140015D00E940F9306F0CFF810B070BDF0B50D4620
S2140015E085B0052793FBF7F31446064605F0A2FFE1
S2140015F06B1E00930135E31E6946013C304601939D
S2140016000295039406F0B7F805B0F0BD03EBD3736C
S2140016105B1005F08FBF000070B504468CB00D4619
S21400162049BB0A46802306F03CF82A46294D80230B
S2140016300121204606F035F895E80F006E4686E84C
S2140016400F003146204606F096F804AE05F110036A
S2140016500FCB203586E80F003146204606F08BF883
S21400166095E80F0008AE86E80F003146204606F0E3
S21400167082F80CB070BD012913D00229F9D10022DE
S2140016801146802306F00DF8802300220121204613
S21400169006F007F8104B0FCB08AD85E80F0029467B
S2140016A0E4E700221146802305F0FBFF2946094D9A
S2140016B080230022204605F0F4FF95E80F006E46D2
S2140016C086E80F003146204606F055F804AE05F1D0
S2140016D03003BDE7B0C80000D0C80000F8B5074624
S2140016E0002008F0E9FB08F03BFB0F26652408F015
S2140016F065FB054608F062FB95FBF4F190FBF4F2FF
S21400170004FB115102FB1402384605F0DCFE013ED4
S214001710EDD1F8BD70B58CB08B1F00936E236F258E
S2140017200C4601938B1D694606460293039506F008
S21400173022F8A4F10903CDE9043504A9E31F3046D5
S214001740CDE9063506F017F8E31D08A9093430463A
S214001750CDE90835CDE90A4506F00DF80CB070BDA8
S21400176013B54FF00111052001F04CFF042211467D
S2140017700023052002F008F84FF00111052001F0C3
S21400178041FF052100230422084601F0FDFF4FF02B
S2140017900111052001F036FF002301220621052055
S2140017A001F0F2FF4FF00111052001F02BFF00239E
S2140017B001220721052001F0E7FF01240622234627
S2140017C01146CDE90044052001F040FF0722002322
S2140017D01146009301942346052001F037FF064882
S2140017E0214600F043FD054B4FF480621A604FF42B
S2140017F080221A6002B010BD00350A0000E100E049
S214001800F0B585B0012510220021684608F0C0F921
S2140018101C4F1D488DF80050294600F027FD1B4838
S2140018201B4C022101F002F92946384600F01EFD45
S2140018300026032338468DF806308DF802508DF8C2
S214001840086000F0A1FE4FF47A732A46B0FBF3F06E
S21400185031460390204602F069F8384600F094FEC0
S21400186032462946204601F0FDFF236C2B432364B5
S214001870636C43F01C0363646946204602F00EF86E
S21400188005B0F0BD8006160030253E0002001E00A2
S2140018900060044008B506F081FCFFF737FDFFF74F
S2140018A0AFFF06F088FC002008BD704708B504218D
S2140018B0112001F0BBF80948012100F0D7FC0848C8
S2140018C0022101F0B3F80748022101F0AFF80648FC
S2140018D0022101F0ABF8002008BD00BF30253E0015
S2140018E002001E00030020000500240008B5224B5D
S2140018F001225A64214BD3F8FC20214B120E12D140
S2140019004AF6E851C3F89011D3F8981141F0040153
S214001910C3F89811C3F89021D3F8642142F400521A
S214001920C3F8642101E0012AF6D0164A136A23F4AC
S214001930441343F488131362A2F58052D2F8A431FC
S21400194043F4F843C2F8A43106F0CCF800F040F8AF
S21400195006F066F806F088F806F0B0F8FFF7A6FF7F
S21400196006F074F800F028F807F0E0F902F0C2F983
S214001970BDE8084002F0D0B900000E400081E00F3C
S21400198000300E4000400E4002F0EAB900F004B805
S21400199006F07AB970477047014800F0EFB900BF0B
S2140019A0F0C8000008B5042201230F21032001F02F
S2140019B0EBFE002008BD000008B50448012100F039
S2140019C055FCBDE80840FFF770BF00BF00350A00B1
S2140019D00148012100F04ABC00350A002DE9F0411B
S2140019E01A4E0446884617460FCE86B06D460FC57B
S2140019F096E8030085E8030015482568012100F0F5
S214001A0035FC6068012100F031FC617B207B0023FF
S214001A10042201F0B9FE617A207A0023042201F044
S214001A20B3FE28466946CDF80880ADF8107002F07F
S214001A306FF8237CA27B1B0643EA0223AB670020D9
S214001A400A236B6706B0BDE8F08100BF08C9000036
S214001A5000350A0070B506680C468D18AC4201D1F8
S214001A60002070BD14F8011B304602F0ABF8F5E715
S214001A70026813699B06FCD57047000013B5044640
S214001A8006F01CFA247B00230122CDE90032640014
S214001A90034AB0FBF4F1034806F058F902B010BD53
S214001AA0A91A00002C750020024B4FF40052C3F810
S214001AB0A820704700A0004073B50F4B0F4E4FF4A0
S214001AC08045C3F89C500446407B06F077FB042311
S214001AD002220DF106013046ADF80630FFF7BAFFD8
S214001AE03046FFF7C5FFA07B06F068FB044B0020DE
S214001AF0C3F89C5002B070BD00A000463410002011
S214001B0000A0004438B5044601211248124D00F0EA
S214001B10ADFBA16811480022FFF760FF00230422F6
S214001B200E21032001F030FE002304220D210320A5
S214001B3001F02AFE94E80F0085E80F00084B01220A
S214001B4020461A70FFF79AFF2046FFF7B5FF0020E1
S214001B5038BD00BF00350A004C7500203410002048
S214001B60487500202DE9F74F0688DFF8A4B09846A0
S214001B7003795E43254B14464FF48042C3F89C20FD
S214001B800134A4B20546407B0F4606F017FB23023D
S214001B9043F001031E48ADF8063002220DF106019F
S214001BA00134FFF757FF2402F610A4B24FF00009E5
S214001BB008F1FF3AC1450ED11548FFF759FFA87B3B
S214001BC006F0FCFA134B4FF480420020C3F89C202A
S214001BD003B0BDE8F08F394632465846FFF73AFF65
S214001BE0CA4514BF44F0FF034FF6FF7302220DF1FF
S214001BF00601584604F58074ADF806303744FFF702
S214001C0029FF09F10109A4B2D4E700BF00A00046ED
S214001C103410002000A00044034B04481B78002B1F
S214001C2008BF0020704700BF487500204C75002094
S214001C301FB5054B0FCB6C4684E80F002046FFF718
S214001C4061FF04B010BD00BF20C90000FEE7000021
S214001C5008B500F069F8064B0649074A8B4201D3DF
S214001C60FEF778FA52F8040B43F8040BF6E700BFC9
S214001C70001000207011002078E000000048704737
S214001C80005A6202104AD2F8943003F00703023B6F
S214001C90032B13D8DFE803F00C14020E0B4B1B6863
S214001CA0D2F80001C0F304200130B3FBF0F0704717
S214001CB0074BF4E7074B1B685B08F1E7054BEEE7BD
S214001CC04FF40043ECE700BF00400E4054100020E5
S214001CD04C1000205010002008B5FFF7D3FF054B2E
S214001CE0D3F80831C3F308230133B0FBF3F0024BFB
S214001CF0186008BD00400E4048100020014B1868D0
S214001D00704700BF4C100020054B1860054BD3F8F9
S214001D10943003F00703022B01D1FFF7DDBF7047B5
S214001D204C10002000400E40044B054A9A60D3F841
S214001D30882042F47002C3F88820704700ED00E067
S214001D40000000004FF4004070474FF47A70704770
S214001D50014B1868704700BF5410002005490A68F8
S214001D601318054883428CBF4FF0FF320B601046B5
S214001D70704700BF5810002000000420D0E9000380
S214001D801847000038B50D46044618B3012824D07D
S214001D90022825D0032826D004280ED0052825D0D2
S214001DA0831F012B09D9082823D0092823D00A2805
S214001DB003D10723EB40DB0704D410484FF47971B6
S214001DC000F0B4F930200E4B0121444301FA05F52A
S214001DD01D5138BD40F2FF33ECE74FF6C073E9E71C
S214001DE040F6FF73E6E74FF47F43E3E74FF6FF73F3
S214001DF0E0E70F23DEE74FF44043DBE730C900009F
S214001E000CA0004438B50D46044618B3012824D06B
S214001E10022825D0032826D004280ED0052825D051
S214001E20831F012B09D9082823D0092823D00A2884
S214001E3003D10723EB40DB0704D4104840F21341DC
S214001E4000F074F930200E4B0121444301FA05F5E9
S214001E501D5138BD40F2FF33ECE74FF6C073E9E79B
S214001E6040F6FF73E6E74FF47F43E3E74FF6FF7372
S214001E70E0E70F23DEE74FF44043DBE730C900001E
S214001E800CA0004610B501210446094800F0EEF902
S214001E900848012100F0EAF9A37820786178B3FABF
S214001EA083F35B09042201F06FFC002010BD00BF25
S214001EB04041050000350A000346007859789B78B3
S214001EC00BB9FFF75FBFFFF79DBF03460078597851
S214001ED09B780BB9FFF796BFFFF754BF38B5047869
S214001EE045782CB3012C26D0022C27D0032C28D0E2
S214001EF0042C0ED0052C27D0A31F012B09D9082CA3
S214001F0025D0092C25D00A2C03D10723EB40DB076C
S214001F1004D4114840F22E4100F008F93022544310
S214001F2004F18044012304F52044AB40A36138BD8E
S214001F3040F2FF33EAE74FF6C073E7E740F6FF7379
S214001F40E4E74FF47F43E1E74FF6FF73DEE70F2346
S214001F50DCE74FF44043D9E730C9000070B5047899
S214001F604578064654B3012C2BD0022C2CD0032CDB
S214001F702DD0042C0ED0052C2CD0A31F012B09D954
S214001F80082C2AD0092C2AD00A2C03D10723EB4090
S214001F90DB0704D4134840F2FE3100F0C7F83023C4
S214001FA05C43114B234405EBC305AD00B3782868AA
S214001FB0C0B213B9B0FA80F0400970BD40F2FF33EA
S214001FC0E5E74FF6C073E2E740F6FF73DFE74FF44E
S214001FD07F43DCE74FF6FF73D9E70F23D7E74FF4CD
S214001FE04043D4E730C900000CA0100270B5054687
S214001FF00E46144600F0ACFE296881EA040202EAA6
S21400200006044C402C60BDE8704000F0A5BE000001
S214002010B0F1804F38B504460D4606D01D4B9842A9
S21400202003D01D48A22100F081F82B693F2B03D96D
S2140020301948B62100F07AF8EB683F2B03D916480A
S214002040B72100F073F86B683F2B03D91248B8210C
S21400205000F06CF86B682A781B0643EAC27343F4F8
S21400206000432360EA682B7A43EA0243A3622A69A4
S2140020706B7A43EA0243E362AA7A084B43EA0273A6
S214002080636004F1424404F5801464012B7D2360F0
S21400209038BD00BF00040040A7C9000000FD0004D2
S2140020A0B0F1804F13B50A46044608D0074B984255
S2140020B005D001910648F52100F038F8019AFF2175
S2140020C0201D02B0BDE81040FFF790BF000400409E
S2140020D0A7C90000B0F1804F10B5044607D0064BE4
S2140020E0984204D0054840F21B1100F01FF8236800
S2140020F023F00103236010BD00040040A7C90000C0
S214002100B0F1804F10B5044607D0064B984204D075
S21400211005484FF49C7100F009F8236843F001036A
S214002120236010BD00040040A7C90000FEE70000C1
S2140021300C4B984210D90C4B984210D9022201231E
S2140021400A490B640A49D1F8003123F0807343EA48
S2140021500263C1F80031704700221346F0E70122FF
S214002160FBE700BF0048E8010090D0030000C8432A
S21400217000400E4038B5114B5B68114B00221C46E0
S214002180C9B21D798D4202D11D68854212D2013234
S214002190052A03F10803F4D10A4841F23A41FFF751
S2140021A0C5FF032205494B6823F0407343EA0263E8
S2140021B04B6038BD04EBC2025279F3E700000E40D4
S2140021C038CB00001DCA00001F2810B5044604D9ED
S2140021D0034840F22F11FFF7A9FF0120A04010BDD1
S2140021E092CA000038B5074C41F67133256C23645B
S2140021F0FFF744FD0021FFF7BDFF0DB10023236468
S21400220038BD00BF00000E40044BDB6B5B0604D4F9
S214002210034AD2F8C830002BFBD1704700300E407E
S2140022200000C64308B5FFF7EFFF024B5868C0F33F
S214002230014008BD00300E40044BD3F84421D207BD
S21400224003D4D3F840211042FBD1704700400E4023
S21400225038B5054C41F67133256C2364FFF78AFFC9
S2140022600DB10023236438BD00000E4038B5C0F31E
S2140022700323013B092B24D8DFE803F02A2D232370
S214002280051619231C20154C0023C0F3043513B182
S2140022901846FFF7D1FF04F1424404F5801405EB1D
S2140022A0C404A400216038BD0D4C0123EDE70D4C9D
S2140022B01023EAE70C4C4FF48033E6E70B4C002380
S2140022C0E3E7BDE838400A4841F6D711FFF72EBFCE
S2140022D0084C0023D9E7084C0023D6E7B0400E4050
S2140022E0E0400E40E8400E40F0400E4050410E40A8
S2140022F01DCA000000400E40C0400E4008B5C0F3A6
S2140023000313013B092B60D8DFE803F0050B0F1918
S2140023105F5F1F233C532E4BD3F80001C0F304200D
S21400232008BD2B4BD3F81401F8E7294BD3F800016E
S214002330C0F300600130FFF747FF0138F0E7244B99
S214002340D3F80C01C0F30820EAE7214BD3F80801C4
S214002350F8E7204B984209D01F4B98420CD041F624
S2140023607B311E48FFF7E2FE0020D9E7184BD3F872
S214002370200100F00F00DEE7154BD3F82001C0F374
S2140023800110D8E7164B984208D003F5B01303F5B2
S2140023908053984206D041F69F31E2E70C4BD3F8C3
S2140023A02801ECE70A4BD3F82801C0F301200430DB
S2140023B0C1E70C4B984205D1054BD3F8300100F02D
S2140023C00300ADE741F6AE31CBE741F6D331C8E7BF
S2140023D000400E408006160080162E001DCA000023
S2140023E090171A00A009140008B5FFF787FF013000
S2140023F008BD000000F00F00013808B5072844D8D3
S214002400DFE800F0040F1943232D4335264BD3F89D
S214002410943003F00703023B052B3DD8234AD05CDB
S21400242008BD214BD3F8803003F00703013B032B94
S21400243034D81F4AF3E71C4BD3F8843003F0070365
S214002440013B032B2AD81B4AE9E7174BD3F8883001
S21400245003F00703013B032B20D8174ADFE7124B94
S2140024601B6F13F0010F0CBF07200920D8E70E4B97
S214002470D3F85C3103F03003202B11D0302B11D071
S214002480102B14BF01200720CAE70C4841F627711D
S214002490FFF74CFE0020C3E70520C1E70120BFE799
S2140024A00420BDE70820BBE700400E400BCB000031
S2140024B011CB000015CB000011CB00001DCA000098
S2140024C038B52C4B984205460AD02B4B984207D07D
S2140024D02A4B984204D02A4841F23A51FFF726FE8A
S2140024E02846FFF787FF234B9D42044611D0224B18
S2140024F09D4212D0214B9D4213D1224BD3F88040EF
S21400250004F00704042C2DD8DFE804F02A11151D6A
S21400251019001C4BD3F88440F2E71A4BD3F88840D6
S214002520EEE7174841F26951FFF700FEEAE7BDE81B
S2140025303840FFF707BCBDE83840FFF709BCBDE8E8
S2140025403840FFF702BCFFF79DFB0E4B0446D3F85E
S2140025500001C0F300600130FFF736FEB4FBF0F474
S214002560204638BD064841F2BB51FFF7DFFD002488
S214002570F6E700BF030020000500240002001E004E
S2140025801DCA000000400E4038B500F47813B3F5BD
S214002590B01F05467FD02ED8B3F5402F69D011D88E
S2140025A0B3F5802F54D006D843B1B3F5003F5AD0C8
S2140025B041F607311AE0B3F5202FF9D1BDE83840CF
S2140025C0FFF760BBB3F5801F00F0A280B3F5A01F35
S2140025D057D0B3F5602FEBD15B48FFF70BFF07280A
S2140025E000F096800928E9D041F2FC215748FFF711
S2140025F09DFD002036E0B3F5381F5AD013D8B3F54A
S214002600001F5FD00AD8B3F5D01F5DD0B3F5F01F1A
S214002610CED14F48BDE83840FFF752BFB3F5101F84
S214002620C6D14C48F6E7B3F5481F57D0B3F5781F28
S21400263000F08280B3F5401FBAD14748FFF740FF4D
S214002640464B0446D3F82801C0F3012004302BE0A3
S214002650FFF718FB414BD3F80C31C3F308230133C3
S214002660B0FBF3F038BDFFF70DFB3C4BD3F8083159
S214002670F3E7FFF707FB394BD3F81431C3F3042312
S214002680EDE73448FFF71CFF344BD3F8303103F046
S2140026900303D840E6E72E48FFF712FF2F4B044609
S2140026A0D3F8200100F00F00FFF78EFDB4FBF0F02A
S2140026B0D8E72748FFF704FF284BD3F82031C3F3A9
S2140026C00113E6E72448A5E72348FFF7F9FE234B66
S2140026D00446D3F82801C0F30110E5E72048FFF7C9
S2140026E089FE0138072824D801A353F820F000BF3C
S2140026F0F3250000332700003327000017270000CB
S2140027003327000033270000112700001F27000092
S214002710144B1868A6E7BDE83840FFF7EFBAFFF796
S214002720B1FA0E4BD3F80031C3F3042303FB0000C9
S21400273098E741F2333159E7FFF7A4FA04462846F2
S214002740FFF752FEB2E700BF06000E001DCA0000EB
S21400275002001E00050024000300200000400E407A
S214002760B80032005C100020014B1880704700BF94
S21400277060100020013838B50C46032864D8DFE81E
S21400278000F002441A2FB1F5007F04D3324842F21B
S2140027902571FFF7CBFC314AC4F30804D2F8683839
S2140027A0002BFBD12E4A136A23F4FF7323F0010398
S2140027B02343136238BD7F2904D9274842F2327179
S2140027C0FFF7B4FC254A04F07F01D2F86038002BEE
S2140027D0FBD1234B1C6924F07F040C431C61E9E702
S2140027E07F2904D91C4842F24D71FFF79FFC1B4A13
S2140027F004F07F01D2F86438002BFBD1184B9C699B
S21400280024F07F040C439C61D4E7154DD5F8903036
S2140028105B0704D5104842F25D71FFF787FC6B6AD0
S21400282023F0300343F010036B62C4F3C311CB1CD8
S2140028302A6B0C490F2B01EA020128BF0F23214304
S21400284041EA03712963B5E7BDE83840024842F221
S2140028507771FFF76BBC00BF1DCA00000020C8439D
S21400286000400E4000F8FF0F022810B50C4604D0BA
S214002870144842F28F71FFF759FC134B5B6A13F052
S214002880300F1BD0202C16D0302C17D0B4B10D48EA
S21400289042F2AA71FFF74AFC0C4B0B4AD2F8901092
S2140028A033EA0101FAD15B024ABFD2F8A000012048
S2140028B0C0F3802010BD4FF40003EEE74FF4400352
S2140028C0EBE700BF1DCA000000400E40FF33E107E3
S2140028D0022808B50CD129B1094B4FF48060C3F823
S2140028E0A80059664AB1BDE808400220FFF7BCBF01
S2140028F0044842F2E071FFF719FC012008BD00BF52
S21400290000400E401DCA000004282DE9F04704468A
S2140029100F4691461FD83D4B3D4A13F800A03D4B4D
S21400292013F80080F1B93C4B33F8103013660123DE
S21400293003FA08F8D2F8903013EA080FFAD1B9F182
S214002940000F5AD00125324A05FA0AF5D2F890301F
S2140029502B42FBD151E0BDE8F047304842F27461AB
S214002960FFF7E4BB2E4B022833F8106047D1536ABA
S21400297013F0300F43D12B4BDB6B5A0504D427489A
S21400298042F28361FFF7D2FB214A536ADB0705D583
S214002990536A23F0300343F010035362224D1C4B5E
S2140029A0A8441E664FEA8808D8F80030002BFBD0F3
S2140029B0B9F1000F21D05544AD002B68002BFCD098
S2140029C0022C1AD1CFB1124F796A11F0010118D03A
S2140029D0012220212046FFF77BFFD7F89C400122EA
S2140029E000210220FFF790FFC4F30A010220FFF740
S2140029F0C1FE3E662B68002BFCD0BDE8F0870027A2
S214002A00CCE72046FFF730FFE7E700BF19CB000012
S214002A1000400E401ECB00002ECB00001DCA00005A
S214002A2024CB000000300E408004F210112838B588
S214002A300C460FD000F00F000138072800F2EB809C
S214002A40DFE810F0240066009A00E9007D00B4007C
S214002A50E900C200042912D1FFF750F90546A8B1D3
S214002A600021284600F082FA023C0A2C45D8DFE80E
S214002A7004F04A473137444444443D0F4D0005298D
S214002A8004D1664B1D68664B9D42E9D80025EBE7EE
S214002A900320052401221146FFF736FFFFF7A2FBAD
S214002AA00DB1FFF7B1FB5F4B5C67FFF715F9044606
S214002AB0FFF7E8F8FFF73CFBFFF7B4FB01462046BC
S214002AC0FFF7C6FB002D5DD128460121BDE8384042
S214002AD000F04CBA5448FFF72BFB02200446D9E717
S214002AE05148FFF725FB01240320D3E741F6E871A0
S214002AF0BDE838404D48FFF719BB41F6ED71F7E7E2
S214002B0001200324C6E700200424C3E70724C5E702
S214002B10062933D14548464D42F22C01FFF706FB05
S214002B20424842F23C01FFF701FBFFF7ABF8FFF724
S214002B30FFFA404B0122C3F80826032321E00629AA
S214002B403D4DEDD0013C092C2BD801A353F824F0C1
S214002B50A92B0000872B0000952B0000A32B00005C
S214002B60A32B00002B2B0000A32B0000A32B0000A0
S214002B70A32B0000812B0000304DE3E72C4DE1E74E
S214002B8004232B6038BD012211460020FFF7BCFE4F
S214002B900223F6E7012211461046FFF7B5FE012391
S214002BA0EFE742F26701A3E70023EAE7072904D02C
S214002BB0092906D042F2F1019AE71A4B00221A6759
S214002BC0E0E7184B0122FAE74C1E072C1ED8DFE878
S214002BD004F0201D1D161D1D0F0403221149D1F8F7
S214002BE05C3123F0300343EA0213C1F85C31C9E7D5
S214002BF0012211460420FFF787FE0122EEE701229C
S214002C0011460220FFF780FE0222E7E742F24F114C
S214002C106EE70022E2E742F2262169E75010002024
S214002C20002D310100400E400148E8011DCA000099
S214002C3080400E400010C84388400E4084400E403E
S214002C4010B504461120FFF7D5FB042804D1274809
S214002C5042F20F51FFF76AFA012200210220FFF725
S214002C6053FE63781BB9A3780BB9E37823B11F48EA
S214002C7042F24B51FFF75AFA237C012B04D11B4832
S214002C8042F25251FFF752FA194A217C536A23F056
S214002C900103022908BF43F001035362154B217854
S214002CA0C3F8A014637AA18843EAC123D362136BE6
S214002CB0A07A217A03F07F630343E08843EAC023C7
S214002CC043EAC11303310F2928BF0F2143EA0173DA
S214002CD01363A37B617B1B0143EA0133E17B0B4358
S214002CE0217B43EA0143536310BD00BF1DCA0000A9
S214002CF000400E400000C84370B505461120FFF79F
S214002D0079FB022804D10F4842F2CD51FFF70EFAA4
S214002D100D4E0E4BB26B2C7813401C436B7844EA76
S214002D20C324AB7844EA0364EB7844EA0324B36B29
S214002D30A34205D0002101220846FFF7E5FDB46353
S214002D4070BD00BF1DCA000000400E4080E4FFF8C2
S214002D50EFF3108072B6704700B962B67047EFF3B3
S214002D601180602383F31188704780F311887047C1
S214002D70034B5868C0F30800003818BF012070479E
S214002D8000ED00E0EFF31083DB0706D4EFF31180CD
S214002D905F2894BF00200120704701207047000084
S214002DA0034BD86B80F04000C0F38010704700BF24
S214002DB000300E4038B542EA0323B3F5007F0546DF
S214002DC00C463ED019D8B3F5807F36D00AD883B3E8
S214002DD0012B21D01F4840F68E11FFF7A7F90022DD
S214002DE013461FE040F201129342F3D11A4BD3F878
S214002DF024321A0EC3F3074314E0B3F5407F24D001
S214002E0040F20132934210D040F201229342E1D1C7
S214002E10114BD3F8283202E00F4BD3F82432C3F319
S214002E200722DBB22B60226038BD0B4BD3F828326A
S214002E30DFE7094BD3F81C32F1E7074BD3F81C3217
S214002E40D7E7054BD3F82032E9E7034BD3F8203217
S214002E50CFE700BF60CB00000081E00F08B5FFF7AA
S214002E609FFF20B1024AD2F8C830002BFBD108BD24
S214002E700000C6431A4B022810B5D3F830320C4671
S214002E8012D0032813D0012814BFDBB2C3F30723E4
S214002E901B0323F47042ECB95AB140F61D111148D9
S214002EA0FFF744F9002010BDC3F30743F0E71B0EFD
S214002EB0EEE70D49CA6E22F470421343CB6601203A
S214002EC0F1E70949D1F8EC2022F470421343C1F827
S214002ED0EC30F4E7002AF4D040F62911DFE700BF13
S214002EE00081E00F60CB000000300E40F8B50446CD
S214002EF00F46FFF755FF78B3FFF7B0FF174B5B6839
S214002F00C3F301439C4227D0154BD3F80061FEF76C
S214002F10B9FE022C05460FD1124BC6F3042606FB5B
S214002F2000069E4204D9104840F23161FFF7FEF8D1
S214002F3002212846FFF78CF9C4F1020210239340C1
S214002F40064A13610FB1FFF789FF2CB921462846C0
S214002F50BDE8F840FFF77CB9F8BD00BF00300E4072
S214002F6000400E40002D310160CB000013B5024634
S214002F70FFF716FFC8B152B90D4B0191D3F80041C7
S214002F80FEF780FEC4F30422019902FB0002094BFF
S214002F901B7843B1084B9A4205D8022002B0BDE820
S214002FA01040FFF7A3BF0020F8E702B010BD00BF37
S214002FB000400E4062750020002D31010378134A50
S214002FC0002B437870B514BF04260026002B8378A8
S214002FD0946914BF02250025002B037924F03F04D2
S214002FE043EA0403C47814BF08210021012C08BF5B
S214002FF043F0010333432B430B439361136841793A
S21400300023F4403343EA0143136070BD00300E40A2
S214003010224B4AF6E85210B5596B5A639A6FD2079C
S214003020FCD41B6C13F003031EBF1D4A0124C2F818
S214003030B44A834204D110B9194BC3F8B40A10BD80
S214003040032B00D09BB9431E012B10D8134A4FF414
S2140030500023D362936FDB07FCD4136C23F00303C7
S21400306043F0010313640D4A536A1C03FCD50B4B53
S2140030709A6FD207FCD41A6C22F0030202431A6439
S2140030809A6F12F00102FBD10038054C18BF0120E0
S2140030900129C4F8B40A08BF5A63D0E700300E40CE
S2140030A00000C6432DE9F04FA0F5E16389B0002487
S2140030B0B3F5966FCDE90244CDE90444CDE9064464
S2140030C006468A46934605D940F6EE215548FFF750
S2140030D02DF8A3E0B0F5E16F534B8CBF0122002220
S2140030E049D1D3F81832C3F30721DBB20791049312
S2140030F04FF416754FF4966748E0BBF1000F0ED0FC
S214003100D9F85C2022F4FE4222F00202B6F5E16F06
S21400311042EA012218BF02200243C9F85C20BAF135
S214003120000F26D020460021FFF7A4FE044610B963
S21400313040F64B31CAE701214046FFF79BFE0446A6
S21400314010B940F65331C1E7384A536EBD4238BF16
S2140031503D4623F4FF73E72D23F0010328BFE72540
S214003160B6F5E16F18BF43F0010343EA4503536623
S21400317054E0012452E0D3F81832190EC3F3074383
S214003180079104934FF496654FF4E167DFF89C903F
S214003190D9F84C400192C4F30174234605A902A84D
S2140031A0FFF708FED9F8EC30019AC3F3012843462E
S2140031B006A903A8FFF7FEFD049BF01B079FF91A5C
S2140031C04143B1FBF5F299182CBF012300238F422F
S2140031D01ED3EBB9069A039FD31B4343B3FBF5F309
S2140031E0FF182CBF01230023BA4211D383B9059BD5
S2140031F0029AA3EB020C00FB0CF0B0FBF5F5551998
S2140032002CBF01200020AB4202D300283FF475AF4C
S214003210044840F63C31FEF789FF0024204609B0FA
S214003220BDE8F08F60CB00000081E00F00300E405C
S214003230334A08B5136FD16C11F0010F03F0060383
S21400324044D0002B42D0132857D9143813288CBFEB
S214003250102308232A49013BCA6C180322F47F4234
S21400326040EA03231343CB64264BCA6C1B88C2F385
S21400327003222833013202EB820003EB5303B3FB35
S214003280F0F3C86C013B072B28BF072320F0EE6045
S21400329040EA036343F48013CB641B4BB3F900305E
S2140032A0002B12DB03F12800C0F34E030344500842
S2140032B000EB4202B3FBF2F20B6D072A28BF07228F
S2140032C023F0700343EA02120A6508BDD16C01F0D0
S2140032D00101194304D109280FD90A380928B6E78D
S2140032E0D26CD20702D50BB92728B0E7074840F6BC
S2140032F09131FEF71BFF0023ACE70423AAE700BFCB
S21400330000300E405E7500206075002060CB000027
S2140033100C4BD3F8803910B5044633B9012804D9CC
S214003320094840F6AF31FEF701FF084A136F23F055
S214003330070323431367064BBDE810401888FFF7C2
S21400334077BF00BF0000C64360CB000000300E40D1
S2140033505C75002038B55A4B02229A639B6B03F0CB
S2140033600F039342044607D0564840F64B21FEF71B
S214003370DDFE0025284638BD0389C82B04D95148F0
S21400338040F65521FEF7D2FEA28823899A4204D938
S2140033904C4840F65621FEF7C9FEB4F90C30C82B4F
S2140033A004DD484840F65721FEF7C0FE6378012B3F
S2140033B055D1A388C82B04D940F65B214148FEF7B7
S2140033C0B5FEE28842F210739A4204D93D4840F6B0
S2140033D06821FEF7ABFEE3884A2B48D9B3F5FA7F9F
S2140033E047D340F6C312934294BF4FF000524FF0BB
S2140033F040523349B4F90C00CB6C23F0405323F011
S21400340001030028A8BF43F001031343CB64D1F89F
S214003410EC30A28843F44073C1F8EC302A4B1A8093
S214003420CB6E43F08073CB66284BD3F8800900B18F
S2140034300420FFF76DFF264B21891980254BB4F930
S2140034400C20A0881A80FFF7F3FEA37BA3B1012B04
S21400345022D01C4840F6CE01FEF768FE0FE0022B95
S214003460AFD1A3880A2BACD94FF42661A6E7002279
S214003470BFE74FF08052BCE7114B174A9A6501220E
S21400348060881146FFF70EFE054640B90D4840F627
S2140034909F21FEF74BFE6DE7094B104AEEE7084A00
S2140034A0D36B43F48063D3636078FFF7B1FDA37AF0
S2140034B0A3F1200253425341044AC2F8943759E715
S2140034C000300E4060CB00005C7500200000C64354
S2140034D05E7500206075002077402057372110B7B2
S2140034E038B50D46044618B3012824D0022825D046
S2140034F0032826D004280ED0052825D0831F012BAC
S21400350009D9082823D0092823D00A2803D107235D
S214003510EB40DB0704D4104840F21341FEF706FEEA
S21400352030200E4B0121444301FA05F51D5138BDEC
S21400353040F2FF33ECE74FF6C073E9E740F6FF735F
S214003540E6E74FF47F43E3E74FF6FF73E0E70F232A
S214003550DEE74FF44043DBE730C900000CA000462E
S21400356038B50D46044618B3012824D0022825D0C5
S214003570032826D004280ED0052825D0831F012B2B
S21400358009D9082823D0092823D00A2803D10723DD
S214003590EB40DB0704D410484FF47971FEF7C6FD04
S2140035A030200E4B0121444301FA05F51D5138BD6C
S2140035B040F2FF33ECE74FF6C073E9E740F6FF73DF
S2140035C0E6E74FF47F43E3E74FF6FF73E0E70F23AA
S2140035D0DEE74FF44043DBE730C900000CA00044B0
S2140035E070B505460E461446FFF7B2FB296881EA19
S2140035F0040202EA06044C402C60BDE87040FFF767
S214003600ABBB0000032838B504460D4607D904288E
S21400361008D0052803D0A0F10803022B02D835F005
S214003620011303D008487D21FEF780FD302060435B
S21400363000F180402A464FF00111BDE8384000F501
S2140036402040FFF7CDBF00BFD5CB00002DE9F041ED
S2140036500E4615461F46044600285FD0012860D057
S214003660022861D0032862D004280ED0052861D035
S214003670831F012B09D908285FD009285FD00A28A4
S21400368003D10720F040C30703D43748BF21FEF715
S2140036904DFD86EA050333F0030303D03248C1210B
S2140036A0FEF744FD072D06F003064FF00F0149D83C
S2140036B04FEA85082D4804FA08F201FA08F1FFF7E8
S2140036C08FFF03212A4806FA08F201FA08F1FFF7ED
S2140036D087FF1F2D03D927489121FEF727FD264C8B
S2140036E02C44A4001F2D276003D922489121FEF701
S2140036F01DFD9DF81830C4F88030204A0123AB40E9
S2140037001F2DC2F8243403D91A489121FEF70EFD66
S2140037109DF81C30C4F80033BDE8F08140F2FF305D
S214003720B0E74FF6C070ADE740F6FF70AAE74FF47B
S2140037307F40A7E74FF6FF70A4E70F20A2E74FF4FD
S21400374040409FE7A5F108084FEA88080C4804FAAD
S21400375008F201FA08F1FFF743FF0321094806FAC9
S21400376008F201FA08F1B2E7D5CB000000A4004049
S21400377008A400404BCC00008020851000A000402C
S21400378004A400400CA40040F8B50D4616461F469B
S2140037900446D8B301283CD002283DD003283ED0AA
S2140037A004280ED005283DD0831F012B09D90828F0
S2140037B03BD009283BD00A2803D10723EB40DB0780
S2140037C004D4274840F21D11FEF7B0FC26B1294666
S2140037D020467FB3FFF784FE3020604300F1804030
S2140037E0072D00F5204028D84368AA000F219140F5
S2140037F023EA010306FA02F21343436076BB294626
S21400380020463FB3BDE8F840FFF76ABE40F2FF33FC
S214003810D4E74FF6C073D1E740F6FF73CEE74FF418
S2140038207F43CBE74FF6FF73C8E70F23C6E74FF497
S2140038304043C3E7FFF794FECEE7A5F1080382688E
S2140038409B000F21994022EA010206FA03F3134374
S2140038508360D3E7BDE8F840FFF782BEF8BD00BF3F
S214003860D5CB00000B4B984270B504460E46154665
S21400387004D1012902D8130C1B041BB10648D92118
S214003880FEF754FC16B1012E02D070BD2561FCE790
S2140038906561FAE700600440C1CC000038B5214BF2
S2140038A0984205460C4604D01F484FF4B371FEF705
S2140038B03DFC217839B9AB68DB0704D56B6B9807FC
S2140038C0FCD402236B606378A078002B08BF00222C
S2140038D0E36818BF4FF4805200B91BB142F400727F
S2140038E003B12B61E3780BB142F4807223790BB1FC
S2140038F042F0400263790BB142F08002E379A0798E
S2140039001B0143EA8003207A034313432B6039B13B
S214003910AB68DA0704D46B6B9B07FCD401236B609F
S21400392038BD00BF00600440C1CC00000C4B98427C
S21400393070B504460E46154604D1012902D832F069
S214003940FF0304D007484FF4FD71FEF7EFFB16B1F6
S214003950012E02D070BDA561FCE7E561FAE700BF65
S21400396000600440C1CC0000022838B504460D466D
S21400397003D911484C21FEF7D9FB6B791F2B03D9CD
S2140039800D484F21FEF7D2FBAB786A789B0143EADD
S21400399082032A781343EA7843EA02132A7943EA31
S2140039A0C2236A7943EA0233AA79043443EA4243DB
S2140039B02401024A135138BDF4CC00000020044014
S2140039C0014B1860704700BF0000844242780179BE
S2140039D00378002A827870B514BF04260026002AD1
S2140039E0C27814BF10250025002A42794FEA023219
S2140039F042EA012242EA0302837914BF202400240B
S214003A00002BC37942EA034343EA0603027A43EAF9
S214003A10050314BF4FF4004100212343002A14BFBE
S214003A204FF4003200220B431343014A136070BD6B
S214003A300020044070B506460C46154622B90D48CF
S214003A404FF42271FEF772FB1CB90B48FEF79CFD83
S214003A5004460A4B6D00013CB4FBF5F413EA04235C
S214003A604FEA042504D0034840F2A521FEF75EFB8A
S214003A70756170BD6ACD000040410500070080FFFB
S214003A8038B51E4B1E4D984204460ED0A8420CD0A8
S214003A9003F50063984208D003F58063984204D08B
S214003AA0184840F22E41FEF741FB40F6AA63E36059
S214003AB041F20502002323606260134AA36063613B
S214003AC0E364A26423666367A367E3670B4B9C42C9
S214003AD009D0AC4207D003F500639C4203D003F53F
S214003AE080639C4201D1002323650023AC42A3657A
S214003AF002D0064A944200D1E36538BD000001407A
S214003B00000401406ACD0000F9FF0100000C0140EE
S214003B1038B52A4B984204460D4610D003F580630C
S214003B2098420CD003F58063984208D003F5806372
S214003B30984204D022484FF45671FEF7F7FA204612
S214003B40FFF79EFFA97B2A8A2368002942F001021C
S214003B5014BF4FF48061002113430B432A7D23607A
S214003B602368002A14BF4FF000520022134323603C
S214003B70AB7C1BB1EB7C43F08003A3652B7B43F44B
S214003B8080536360D5E901122046FFF753FF6B7B35
S214003B900BB11023E3606B7D1BB1236843F48033C5
S214003BA02360AB7DEA7D1B07120503F0E04302F4B9
S214003BB0E002134323662B78E36038BD0000014023
S214003BC06ACD000003695B06FCD5416370470000C0
S214003BD02DE9F047374FDDE9088406461546994635
S214003BE08A4641B9082323704FF4D963A360324B49
S214003BF06760E360FEE75AB1531E134208D00823FD
S214003C00237040F2CB63A3602B4B6760E360FEE754
S214003C10FFF7A5F8002D08BF04254D4538BF4D46D3
S214003C20D6F808E06B1E13EA0E0FC5F1000202EA92
S214003C300E0208BF0025154409F1FF33AA4413EA13
S214003C400A0FC9F1000202EA0A0208BF4FF0000993
S214003C5002EB090372680132A2EB0E01A3EB0E0E13
S214003C607145844615491AD2B8F1000F02D09B1A46
S214003C70C8F80030162540F22273C4E902312570D8
S214003C8067606046FFF771F840F2D763A3600A4B9F
S214003C9025706760E36000252846BDE8F087B360BE
S214003CA0002323704FF4E563C4E902316760FFF731
S214003CB05CF8F1E7E1CD000082CE00006ACE00009D
S214003CC030B50C4685B011461D461BB9039200F070
S214003CD019F803990648019500230093042201234E
S214003CE0002C18BF2046FFF773FF05B030BD00BF9D
S214003CF064100020024B00221A6003F09BB800BF3D
S214003D0064990020FEE703F0ADB80000014B186090
S214003D10704700BF649900201FB5104B1B78012B1D
S214003D2007D1FFF725F8B0B94FF0FF3005B05DF8C2
S214003D3004FB684600F06CF99DF800100029F3D1EA
S214003D4001206A4600F0F0FD9DF80000003818BF1C
S214003D5001204042EAE76FF00500E7E7189E0020E2
S214003D601FB5FFF705F848B9074B1B78012B02D0A3
S214003D70684600F051F84FF0FF3001E06FF00500A4
S214003D8005B05DF804FB00BF189E002070470000D9
S214003D902DE9F041044608B9FFF7B4FFFEF7E8FF47
S214003DA0194E1A4D074638B12023237040F22133AE
S214003DB0C4E902356660FEE7154B1B78012B08D078
S214003DC002232370666040F22533C4E90235BDE85D
S214003DD0F081DFF8408098F80030F92B05D91E23D3
S214003DE02370666040F22A33EFE7FEF7B8FF98F8D4
S214003DF00030013388F80030FEF7B7FF27706660A2
S214003E0040F23533E1E700BF9CCE0000B4CF00009F
S214003E10189E0020199E002070B5044608B9FFF7CA
S214003E2071FF264B1E78012E09D013232370244BD6
S214003E30636040F2FE33A360224BE360FEE7224B52
S214003E401B88022B09D8092323701D4B636040F2A0
S214003E500943A3601B4BE360FEE71C4D2B784BB178
S214003E601F232370164B636040F20C43A360154B70
S214003E70E360FEE7FEF786FF48B11F232370104B72
S214003E80636040F20F43A3600E4BE360FEE701F071
S214003E901BFD0F4B0F4A18700F4B2E7018700C231B
S214003EA058430E4B1B5813600D4A136001F0BAFFBF
S214003EB002F0FEFFBDE87040FFF724BFFA9A00202C
S214003EC09CCE000089CF0000389F0020189E00205E
S214003ED00F9B00202C9F00200E9B0020189B00208C
S214003EE0289F002008B501F0EFFCA0F140035842DF
S214003EF0584108BD30B14368C1F8EC308368DB68D0
S214003F00C361704791F83030022B03D0072B05D0E1
S214003F10034B00E0034BC1F8EC307047024BFAE766
S214003F2009DE000021CF000028CF0000044BC1F8B6
S214003F30EC3018B1826802B1D368C361704700BF25
S214003F4009DE00000023C0E90033038170470368E0
S214003F5010B533B901220281C1E90933016041601D
S214003F601CE0028991F833400132028193F8332035
S214003F70A2420CD85B6A002BF8D14B6243688B6276
S214003F805962ECE7C1E909325162996206E09A6A21
S214003F90002AF7D1C1E909329962016010BDC36AEF
S214003FA05BB19A68526A4AB9C3E902221A8A013A90
S214003FB01A820023C0E90933C3627047D0E9092199
S214003FC011B991629A60F1E74A620AB9D960EDE7E1
S214003FD09162EBE738B5C56AAB685B6A4BB1FFF731
S214003FE0DEFFC562014605F10800BDE83840FFF770
S214003FF0AEBF38BD054B40220021013AC3E900118F
S214004000198103F10C03F8D1704700BF189B0020FC
S21400401070B5044608B9FFF775FE994D6A68D2B1C7
S2140040202B68984E4BB92346296B97489200FFF7AA
S21400403047FE306023780BB170BD3360934B326817
S2140040401A60934A6B6813609249934A9B00136008
S2140040500A6813440B602A89B2B12346296B8F483D
S2140040601201FFF72DFE8E4B18602378002BE3D14C
S2140040708C4B8D4A18602B89138086498B4A1B010E
S21400408013600A6813440B606A69002A27D02B69FC
S214004090874E002B62D12346296B86489200FFF795
S2140040A00FFE30602378002BC6D1834B2A7E1A7011
S2140040B0824BEA691A60824B32681A606B69EA685A
S2140040C064215A43B2FBF1F27E490A607E4A714986
S2140040D013607E4A9B0013600A6813440B606A6A8A
S2140040E0002A28D02B6A7A4E002B39D12346296B1A
S2140040F078489200FFF7E4FD30602378002B9BD1D0
S214004100754B95F828201A70744B32681A606B6AE3
S214004110EA6864215A43B2FBF1F271490A60714AB7
S214004120E96A1360704A9B001360704A116059492F
S2140041300A6813440B606E4E6B6B336002F06CFFC4
S21400414003F0A2FD054668B101232370694B636046
S2140041504FF4DA73A360684BE3606DE73360A4E75F
S2140041603360CDE703F0AAFE3668644BB0420246E1
S214004170186009D2092323705E4B63604FF4DD7329
S214004180A3605D4BE360FEE700F0E2802B46002074
S214004190012105F02DFB7043594BB6F57A7F186068
S2140041A008D9324600230020012105F021FB4FF4F8
S2140041B07A754543534B544A1D6000231370534A87
S2140041C01370534A1360534A1360534A1370534A8A
S2140041D01370534A2046137002F0E8FA0A23B0FB25
S2140041E0F3F0504B18602578002D7FF425AF284A51
S2140041F0136853B12549086838B10146013B41F8B8
S214004200045BFBD1116802F03BF8474B00251D709C
S21400421001F052FBFFF7EEFE444B1D60444B1D8041
S214004220214B1B88002B40F09580424A00231360E8
S214004230414A1380414A1360414A1380414A136041
S214004240414A2046138001F097FF2378002B7FF425
S214004250F3AE204601F0B2FD2378002B7FF4ECAEDF
S214004260204602F01DFD2378002B7FF4E5AE00F01B
S21400427011FCFFF78BFD354B01221A70DCE600BF00
S214004280781000206C99002031CF00007099002033
S21400429074990020689900207899002044CF000087
S2140042A07C9900208099002084990020889900201D
S2140042B09499002056CF00008C99002090990020F9
S2140042C0989900209C990020A0990020A49900208D
S2140042D0B49900206FCF0000AC990020B899002058
S2140042E0BC990020C0990020C4990020B0990020F5
S2140042F0A89900209CCE0000C0CF0000F0990020B6
S214004300CC990020C8990020189E0020199E0020F5
S214004310289F00202C9F00200E9B00200F9B002033
S214004320209E00201C9E00203A9F0020F49A002029
S214004330F89A0020089B00200C9B0020109B002071
S214004340149B0020249E0020289E0020FA9A00201D
S214004350284621E7204600F0B3FF2378002B3FF4E1
S21400436064AF69E690F833300B490C22534330B5FE
S214004370CA58CC1832B901252581C0E90422C85094
S214004380606030BD258901352581002402614461C5
S2140043905061C850F5E700BF189B002090F8332006
S2140043A00B490C235A4330B58C588B1834B9012569
S2140043B01D81C0E904448850586030BD1A89013216
S2140043C01A81002202615A6842611061F4E700BF58
S2140043D0189B002010B5044690F8330001F084FACC
S2140043E0084B94F833201B789A42204606D1FFF7F4
S2140043F0D5FF2046BDE8104004F0B5BCFFF7B2FF7D
S214004400F7E700BF0E9B002038B50C4691F8321037
S21400441007290546049807D80239052906D8DFE893
S21400442001F0060605052525FF293AD138BDA26705
S214004430A4F87C30606415B12046FFF7B0FD214635
S2140044402846FFF773FD94F83230032B06D104F1AB
S214004450540003F053FC08B1FFF754FC2046FFF766
S214004460B9FF0023238684F83230DFE7A267A4F87A
S2140044707C30606415B12046FFF791FD2146284642
S214004480FFF754FD94F83230072B06D104F15400A0
S21400449003F034FC08B1FFF735FC00232386042321
S2140044A0E1E7BDE83840FFF72DBCD0E90032934283
S2140044B010B50FD01C690021A24215BF6161C3E987
S2140044C00412C3E90412C2E9043116BF1361026084
S2140044D00460436010BD000070B50446D4E904359E
S2140044E090F83300124A0C21BDB973B941435518F0
S2140044F053502B816B6001F00DFA0023C4E904339E
S2140045002046BDE8704004F044BC48431618318984
S214004510013931815D611350EFE701FB00221189FB
S214004520013911812B610BB95560E6E75D61E4E75F
S214004530189B002013B5044670B1084B1B78012B5E
S2140045400AD10023CDE90033054A416F03460548EA
S21400455003F032FC044B1C6002B010BD209E00200D
S21400456009480000D4990020D0990020F8B50446E8
S214004570A8B1114B1B78012B11D1056F0F4E7DB9D9
S2140045800F4B1F6803F09AFC32682B46511E0D46EF
S2140045901946E7FB0051284605F02AF96067F8BD82
S2140045A003F08CFC32680023511E0E461946E5FBCC
S2140045B000613046F0E700BF209E0020A89900204A
S2140045C01C9E00202DE9F7435E4B1B78012B00D084
S2140045D0FEE75D4B93F80080B8F1000F40F0968040
S2140045E0FEF7BDFB594F5A4C97F80090594D0646BA
S2140045F001F06AF940280346387000F08A800C20E3
S214004600DFF85C814343B9F1400F58F8033023606C
S21400461003D101F0F9FCAFF3008022682B68DFF8C5
S21400462044919A4218D1002001F016FE012802D0CB
S214004630286802F00FFD99F800303BB12068436F00
S2140046400BB9FFF793FF2068FFF774FF304603B0FF
S214004650BDE8F043FEF789BB99F800301BB3DFF8DE
S2140046600891D9F800305B6FEBB13B4801A903F025
S214004670C7FB30B9D9F80030019A37485A6703F0BB
S2140046803DFBD9F800305A6F6AB993F8330000EB57
S214004690400008EB8000FFF708FF3B780C225343EE
S2140046A058F8033023602268D2F8C0300133C2F8CD
S2140046B0C0302A4A1368013313603B78402B33D04E
S2140046C02B682268934215D0A3B102F0CBFB2B686F
S2140046D0D3F8C83098421FD302F0C4FB2B68D3F837
S2140046E0C830C01A2A68D2F8CC30C2F8C4001844C1
S2140046F0C2F8CC00246802F0B5FBC4F8C80002F08B
S21400470016FC3046FEF731FBBFF36F8F03B0BDE8F3
S214004710F083C4F80080CCE702F0A4FB2B68D3F843
S214004720C820D2431044DDE701F066FC2C681CB1BB
S21400473002F098FBC4F8C80004F0B4F9AFF30080A8
S214004740DDE700BF189E0020199E00200F9B00206A
S2140047502C9F0020289F0020D4990020309F002006
S214004760189B0020209E0020D09900202DE9F041C3
S214004770044608B9FFF7C6FAFEF7FAFA1E4F1F4EB0
S21400478038B12023237040F24D33C4E90236676007
S214004790FEE71B4B1B78012B08D0022323706760B3
S2140047A040F25133C4E90236BDE8F081DFF85480A8
S2140047B098F800302BB91F232370676040F25633F9
S2140047C0F0E7FEF7CCFA98F80050013DEDB288F815
S2140047D000503DB1FEF7C9FA2D232370676040F202
S2140047E05E33DFE7FEF7C1FAFFF7ECFE2570676081
S2140047F04FF45A73D6E700BF9CCE0000A6CF000049
S214004800189E0020199E002038B50E4B1B78012BF1
S2140048100D4616D1FEF7A3FA00236B670A4B1B68FA
S21400482093F833300446094803EB430300EB830058
S214004830FFF73BFE2046FEF798FABDE83840FFF744
S214004840C1BE38BD209E0020D0990020189B0020B5
S214004850F8B50C46FEF783FA94F83230013B07466B
S214004860062B48D8DFE803F0544704475B470400AC
S21400487094F83030042B08BFE36A4FF0000608BFF8
S2140048805D6AA667A4F87C6018BF354602F0EAFAAF
S21400489060642046FFF783FB94F83230032B31D157
S2140048A0FFF798FD84F832604FF44073238615B303
S2140048B095F8333095F834209A421CD094F833207B
S2140048C09A4218D1284600F0E7FE95F83430834225
S2140048D028BF0346D9B295F833308B420BD0284612
S2140048E001F00CFE284603F009FE95F83320014639
S2140048F02E2003F0B1FF3846FEF737FABDE8F84041
S214004900FFF760BE072B04BF042384F83230CBE7E2
S214004910002384F832302046FFF75CFDEBE70423E3
S21400492084F83230E7E700002DE9F04105460E46F0
S21400493014460AB9FFF7E6F9002323701E4B63609E
S21400494040F28533A3601D4BE360FEF708FADFF8FC
S21400495080800746E6B1C8F80060194B012D1A782A
S2140049601FD0012A0FD1174C174821680025743133
S2140049701D7003F045FA08B123685D67124803F01E
S214004980BDF9002323603846BDE8F041FEF7EDB9D7
S214004990204601F00BFF0A23B0FBF3F0C8F8000036
S2140049A0DBE7002AEFD1094C1D702068FFF7DEFD1B
S2140049B02068FFF7BFFDE6E79CCE000091CF000021
S2140049C0209E0020D0990020D4990020289F002007
S2140049D01C9E0020F7B504460D4611B303F06EFA90
S2140049E0114B1A680026571E46F1FF31E5FB007191
S2140049F03346384604F0FCFECDE9006601460B4A15
S214004A00234604F1540003F0D7F908B1FFF77AF90A
S214004A100323204684F8323003B0BDE8F040FFF7A9
S214004A205BBD0223F5E700BFA899002051480000AF
S214004A3037B5144D0B4611462A6882F830300023ED
S214004A4082F83130104A127804463AB10F4A1048BC
S214004A5012680191536703F051F901992868FFF72E
S214004A60B9FF64B1296804F10800CC62FFF76FFA59
S214004A702968204603B0BDE83040FFF73BBA2B68F4
S214004A80DC62F5E7289F0020209E0020D0990020B9
S214004A90D4990020774B1B7882B0DBB28DF80530B6
S214004AA0754B1B68DBB28DF80730744B1B78DBB296
S214004AB08DF80530724B1B78DBB28DF80530714BE4
S214004AC01B68DBB28DF807306F4B1B6ADBB28DF8C4
S214004AD007306E4B1B78DBB28DF805306C4B1B78BD
S214004AE0DBB28DF805306B4B1B88DBB28DF80630D9
S214004AF0694B1B88DBB28DF80630684B1B78DBB23F
S214004B008DF80530664B1B88DBB28DF80630654B9A
S214004B101B88DBB28DF80630634B1B88DBB28DF842
S214004B200630624B93F82830DBB28DF80730604BC6
S214004B301B78DBB28DF805305E4B1B88DBB28DF838
S214004B4006305D4B1B88DBB28DF806305B4B1B884E
S214004B50DBB28DF806305A4B1B88DBB28DF8063078
S214004B60584B1B88DBB28DF80630574B1B88DBB2E0
S214004B708DF80630554B5B8DDBB28DF80730544B05
S214004B801B78DBB28DF80530524B1B88DBB28DF8F4
S214004B900630514B1B78DBB28DF806304F4B1B6A44
S214004BA0DBB28DF807304E4B1B78DBB28DF8053044
S214004BB04C4B1B88DBB28DF806304B4B1B88DBB2A8
S214004BC08DF80630494B1B68DBB28DF80730484B32
S214004BD01B78DBB28DF80630464B1B78DBB28DF8BF
S214004BE00530454B1B78DBB28DF80530434B1B7800
S214004BF0DBB28DF80530424B1B78DBB28DF8053002
S214004C00404B1B78DBB28DF805303F4B1B78DBB290
S214004C108DF805303D4B1B88DBB28DF806303C4BDB
S214004C201B78DBB28DF805303A4B1B88DBB28DF86B
S214004C300630394B1B88DBB28DF80630374B1B78B5
S214004C40DBB28DF80530364B1B88DBB28DF80630AC
S214004C50344B9B8CDBB28DF80730334B1B88DBB2B2
S214004C608DF806309DF805309DF806309DF8073023
S214004C7002B07047B8100020B4100020B01000201A
S214004C80F4990020BC100020F8990020C0100020E5
S214004C90209A0020C2100020C4100020C610002059
S214004CA0CC100020C8100020CA100020249A002033
S214004CB0CE100020D0100020D2100020D4100020EB
S214004CC0D6100020D8100020DA100020549A0020B9
S214004CD0DC100020DE100020E8100020849A00205F
S214004CE0E9100020EA100020E0100020E410002068
S214004CF0EE100020EC100020ED100020F210002036
S214004D00F3100020F5100020F4100020F61000200C
S214004D10F8100020F0100020FA100020FC100020F0
S214004D20FE100020AC9A00200011002010B4074CA2
S214004D302468A4F8AC200022C4F8A410C4F8A82064
S214004D4001215DF8044B1A46FFF772BE289F00202B
S214004D502DE9F04F2DED028B83B0DDE90E6408EEF1
S214004D60102A05468A4698460CB9FEF7CBFF0FFA7E
S214004D7088F3002B0093C0F25081FDF7F9FF00285E
S214004D8000F04681202323709C4B636040F235136D
S214004D90A3609B4BE360FEE71F232370974B636083
S214004DA040F23913A360964BE360FEE702232370BC
S214004DB0924B63604FF49F73A360914BE3604FF098
S214004DC0000B57E047F6FF6308EA0303581E012866
S214004DD00DD9042B0BD0082B09D008232370874B42
S214004DE063604FF4A373A360854BE360FEE7286817
S214004DF0844B984209D00C232370804B63604FF499
S214004E00AC73A3607E4BE360FEE708F48073019307
S214004E100EB100233360FDF7A2FF08F00F09B9F1C9
S214004E20040F074607D0B9F1080F42D0FDF79DFFE3
S214004E30FEF768FF7AE02A6A3AEA020302EA0A0BF9
S214004E401ED1019B13B122EA0B022A626E4A126837
S214004E500AB1C2F8A8B00EB16A6A32603846FDF7E9
S214004E6084FF00222270654A62604FF4BB72A26023
S214004E70634AE260584603B0BDEC028BBDE8F08F93
S214004E80009B002B08DAFDF770FF1D2323705B4B99
S214004E90636040F27D138FE75C4B1B78002B3BD0A2
S214004EA0FDF763FF2D232370544B63604FF4C273EA
S214004EB082E72A6A12EA0A0B16D0019B13B122EA8D
S214004EC00B022A62504A12680AB1C2F8A8B00EB1A4
S214004ED06A6A32603846FDF748FF00222270474A69
S214004EE062604FF4D172C2E7009B002B08DAFDF730
S214004EF03CFF1D222270414A626040F2A912B6E7CA
S214004F00424B1B7843B1FDF730FF2D2222703B4AFF
S214004F1062604FF4D872AAE7284618EE103A424666
S214004F205146FFF703FF3846FDF71FFF364FFFF7E2
S214004F3049FBFDF714FF3B6893F83120032A4BD852
S214004F40DFE802F002263E320EB15B6C33600023CF
S214004F5023702A4B636040F22D23A360284BE36046
S214004F603B68D3F8A8B0019B4BB1B9F1040F02D04F
S214004F70B9F1080F3AD12A6A22EA0B022A62FDF733
S214004F80F4FE002222701D4A626040F26F226EE735
S214004F900EB15B6C3360FDF7E8FE21232370174BE0
S214004FA063604FF40E7307E70EB100233360FDF71E
S214004FB0DCFE22232370114B636040F24123FBE6A4
S214004FC00EB15B6C3360FDF7D0FE312323700B4BC4
S214004FD063604FF41373EFE60090FDF7C6FEFEF72E
S214004FE091FE23780098002BBAD0E8E60090FDF7F3
S214004FF0BCFEFEF787FE0098C1E700BFC7CF0000E3
S21400500057D00000464C4147289F0020199E00209C
S214005010FDF7B8FE00287FF4BFAE094B1B78012BC6
S2140050207FF4C4AE002D7FF4CDAE0A232370054B6B
S214005030636040F24313A360034BE360FEE700BFE8
S214005040189E0020C7CF000057D00000054B064A28
S214005050C36100234361136883610BB91060704716
S2140050605861FBE709DE0000F49A00202DE9F84FAE
S21400507005460F4693461C460BB9FEF743FEFDF762
S21400508077FEDFF88490DFF88480064638B1202368
S21400509023705523C4E90238C4F80490FEE73DB9EE
S2140050A00A2323705823C4E90238C4F80490FEE7A4
S2140050B0FDF755FE282231468246284604F068FD54
S2140050C00F4BC5F820B0C5E9003705F10800FEF71C
S2140050D039FF2846FFF7BAFF0A4A138801331380C0
S2140050E029463A46372003F0C3FE5046FDF73DFEFC
S2140050F070232670C4E90238C4F80490BDE8F88F1F
S214005100464C4147F89A0020C7CF000062D0000006
S21400511010B50023038690F83230C0F8A810044675
S2140051204264072B1AD8DFE803F0121204041212A6
S2140051301717032B05D1543002F0E0FD08B1FEF737
S214005140E1FD2046FFF746F9002384F8323020467A
S214005150BDE81040FEF723BF0423F6E7FEF7D2FDB6
S214005160F5E700002DE9F84305460F4616461C46AF
S2140051700BB9FEF7C7FD4E4B1B78012B0CD0022354
S21400518023704C4B636040F23233A3604A4BE360BB
S21400519000252846BDE8F8834DB90A232370454B01
S2140051A0636040F23733A360434BE360FEE747F6A5
S2140051B0FE731E4209D0082323703E4B636040F204
S2140051C03A33A3603C4BE360FEE72A683B4B9A42C7
S2140051D009D00C232370374B63604FF45073A360E1
S2140051E0354BE360FEE701F03DFE8146FDF7B7FD77
S2140051F0B6F5004F80460BD048F201039E421BD006
S21400520036B1012E18D0FDF7B0FDFEF77BFD02E0AB
S214005210296A39432962AF68C5F8249087B94046A1
S214005220FDF7A3FD234B636040F262332770A36053
S214005230214B2D6AE360ACE7296A21EA0701E9E71A
S21400524038467F6AB0F8AC3003F00F03042B07D063
S214005250082B0FD04046FDF788FDFEF753FD0EE005
S214005260D0F8A4102B6A31EA030308D14A46FFF7A8
S2140052704FFF04E0296AD0F8A4301940F6D1002F79
S214005280DED14046FDF771FD330401D4FFF79AF9ED
S214005290FDF765FD2D6AFDF768FD00232370054BBD
S2140052A0636040F2A333A360034BE36071E700BF83
S2140052B0189E0020C7CF00004CD00000464C414747
S2140052C0154BF0B51C68154B1E880025721E04F1A0
S2140052D0100192B22B46AFB2BA4213D8110104EBBA
S2140052E00212635053601381D3600D4A1381D3803A
S2140052F09680146003700B4B43605D2383600A4BFB
S214005300C360F0BD41E9041321F8083C41F8043CB1
S21400531001351031DFE700BF809900208499002016
S214005320FC9A00206FD00000F3D00000428910B530
S21400533082B1094B01681C680C6041681960D98805
S214005340891AD9809988114499800023C0E90033CE
S21400535043818381104610BDFC9A002038B5044670
S2140053600D461022002104F013FC258138BD0000F4
S2140053702DE9F74F0C9C06468A4617461D460CB983
S214005380FEF7C0FCFDF7F4FC48B120232370864BE3
S214005390636040F23313A360844BE360FEE74EB9CC
S2140053A00A232370804B63604FF49B73A3607F4B8C
S2140053B0E360FEE7C7F30E034BB1082323707A4B76
S2140053C0636040F23913A360784BE360FEE732680F
S2140053D0774B9A4209D00C232370734B636040F2DC
S2140053E03D13A360714BE360FEE73FB2002F0CDB7A
S2140053F0FDF7C8FC48B11F2323706B4B63604FF466
S214005400A073A360694BE360FEE76A4B93F80090D5
S214005410B9F1010F1CD1FDF7A2FC96F82830DFF891
S2140054209CB18046F3B9DBF80030736286F82890AA
S2140054300DB1F26A2A609A6B326240469E63FDF7AF
S21400544094FC00232370584B63604FF4AA7305E066
S21400545002232370544B636040F24513A360534B02
S214005460E36014E0D6F82490DBF80020914521D1C3
S214005470FF2BDFF834914D4F0CD1FDF776FC1E2341
S2140054802370C4F8049040F25D13C4E9023703B0F9
S214005490BDE8F08F013386F828300DB1F36A2B6033
S2140054A04046FDF762FC23232370C4F8049040F2C4
S2140054B06913EAE7002F0BDAFDF757FC0DB100235E
S2140054C02B601D232370384B63604FF4BB73C5E716
S2140054D0394B1B785BB1FDF748FC0DB100232B6000
S2140054E02D232370304B63604FF4C173B6E792F8F8
S2140054F0331099F833308B420BD9484600F0FEFF44
S214005500484602F0FBFF99F8332001462D2003F0B1
S214005510A3F9524604213046FFF78AFA4046FDF7C3
S21400552024FCFFF74FF8FDF71AFCDBF8003093F881
S2140055303120032A32D8DFE802F00213271D0DB10E
S2140055405B6C2B6000232370174B63604FF4D073A3
S214005550A360164BE36003B0BDE8F04FFDF705BC53
S2140055600DB15B6C2B60212323700F4B63604FF4EF
S214005570D573EDE70DB100232B60222323700A4B71
S21400558063604FF4DA73E3E70DB15B6C2B60312395
S2140055902370054B63604FF4DF73D9E70190FEF785
S2140055A0B1FB0198D7E700BF02D1000094D10000FC
S2140055B04D555458189E0020199E0020289F002004
S2140055C0054B064AC36100234361136883610BB928
S2140055D0106070475861FBE709DE0000089B00205A
S2140055E02DE9F04705460F4614460AB9FEF78AFB32
S2140055F0FDF7BEFBDFF88090DFF88080064638B106
S214005600202323705223C4E90238C4F80490FEE72E
S2140056103DB90A2323705523C4E90238C4F8049020
S214005620FEE7FDF79CFB302231468246284604F012
S214005630AFFA0F4B05F10800C5E90037FEF782FC0C
S2140056402846FFF7BDFF0B4A13880133138029460F
S2140056503A46292003F00CFC5046FDF786FB6C23E7
S2140056602670C4E90238C4F80490BDE8F08700BF8D
S2140056704D5554580C9B002002D10000A0D10000CC
S214005680836B00F138028B42186A01D110607047B4
S21400569003F120020346F6E7836B3F2003B9704709
S2140056A09A6822B192F83320904228BF10461B6AAF
S2140056B0F4E700002DE9F04F054685B08B4614460A
S2140056C00AB9FEF71FFBFDF753FBDFF89481604F26
S2140056D040B12023237040F25723C4E90237C4F8B0
S2140056E00480FEE745B90A23237040F25A23C4E932
S2140056F00237C4F80480FEE7CBF30E0343B1082359
S214005700237040F25D23C4E90237C4F80480FEE744
S2140057102A68504B9A4208D00C23237040F261232B
S214005720C4E90237C4F80480FEE74B4B1B78012B14
S2140057300AD002232370C4F8048040F26523C4E92B
S214005740023705B0BDE8F08FDFF818A1FDF707FBBC
S2140057506A6ADAF800309A42814608D0FDF705FBFF
S2140057601B232370C4F804804FF41B73E7E701F093
S21400577079FB95F828300290013BDBB2E86285F8A9
S21400578028304BB14846FDF7F0FA23232370C4F8BF
S214005790048040F27D23D2E7DAF800002946FFF7BE
S2140057A06FFFAE685EB96E6285F828604846FDF702
S2140057B0DCFA2670C4F8048040F28A23BFE7DAF8E1
S2140057C0001091F8333091F834600393B34220D040
S2140057D00846FFF761FFB04228BF3046039BC6B2BB
S2140057E0B34216D20846FEF777FEDAF8000080F8D5
S2140057F0336002F083FE324601462E2003F02CF87A
S214005800304600F071F8DAF80000FEF7C7FD134BDB
S2140058101E70A9686962012385F828308B6B2B629D
S214005820029B8D63009300231A462846FEF7ECFD84
S2140058304846FDF79AFA1BF4004F01D1FEF7C2FE68
S21400584000232370C4F8048040F2AD2377E700BF3E
S21400585088D100004D555458189E00200E9B0020FD
S21400586002D10000289F00202DE9F341846B0546F5
S214005870012714B902B0BDE8F081D4F8208001F009
S214005880F1FA2146E06206462846FFF7F9FEA168CF
S21400589021B984F8281061624446EAE784F8287043
S2140058A08B6B2362002365621A468C632046009643
S2140058B0FEF7AAFDF0E70000024B0022C3E9002233
S2140058C0704700BFDC9A002008B5064B186828B958
